:020000040800F2
:10000000A80B002049020008A5220008CB1A00080E
:10001000A1220008CD180008DB2F00080000000016
:10002000000000000000000000000000392B000864
:100030008D190008000000007F2900083B2D0008F2
:1000400063020008630200086302000863020008FC
:1000500063020008630200086302000863020008EC
:1000600063020008630200086302000863020008DC
:1000700063020008630200086302000863020008CC
:1000800063020008630200086302000863020008BC
:1000900063020008630200086302000863020008AC
:1000A000630200086302000863020008630200089C
:1000B000E52D0008630200086302000863020008DF
:1000C000630200086302000863020008630200087C
:1000D00063020008F52E00086302000863020008AE
:1000E000630200086302000863020008630200085C
:1000F000630200086302000863020008630200084C
:10010000630200086302000863020008630200083B
:10011000630200086302000863020008630200082B
:10012000630200086302000863020008630200081B
:10013000630200086302000863020008630200080B
:1001400063020008630200086302000863020008FB
:1001500063020008630200086302000863020008EB
:1001600063020008630200086302000863020008DB
:1001700063020008630200086302000863020008CB
:10018000630200086302000800F002F800F04CF877
:100190000AA090E8000C82448344AAF10107DA45E2
:1001A00001D100F041F8AFF2090EBAE80F0013F0E8
:1001B000010F18BFFB1A43F001031847488F0000D6
:1001C000688F0000103A24BF78C878C1FAD8520767
:1001D00024BF30C830C144BF04680C6070470000C1
:1001E0000023002400250026103A28BF78C1FBD840
:1001F000520728BF30C148BF0B607047662907F01F
:100200006081642900F0B080002070471FB507F0BE
:100210004EF900F0F5FC04000020002106F098FBE8
:10022000E0601FBD10B510BD00F01AFE1146FFF7CB
:10023000EDFF05F04BF800F038FE03B4FFF7F2FFD6
:1002400003BC03F098FC00000948804709480047B8
:10025000FEE7FEE7FEE7FEE7FEE7FEE7FEE7FEE776
:10026000FEE7FEE704480549054A064B70470000D3
:100270003D2D000889010008A8050020A80B0020DA
:10028000A8070020A8070020704710B54C1084EA8A
:10029000530404D54042C1F1000138BF491E1B423E
:1002A00004D55242C3F1000338BF5B1E00F06CF965
:1002B00014F0804F04D04042C1F1000138BF491E04
:1002C00014F0004F04D05242C3F1000338BF5B1E4C
:1002D00010BD00000FB4044910B503AA029800F045
:1002E0005BFC10BC5DF814FB500000200FB41CB583
:1002F000084B06AA7B4469460090059800F033FC41
:1003000004460020694600F041FC20461CBC5DF814
:1003100014FB00009508000070B50446856900686C
:10032000C10601D5302600E02026C00707D070BDE9
:10033000D4E9012130469047206A401C20626D1E9E
:10034000F6D570BD70B5044685690078C00707D141
:1003500070BDD4E9012120209047206A401C206212
:100360006D1EF6D570BD00002DE9F0410646002453
:1003700010687529314616A510D0AFF3008000280B
:1003800002DA404213A507E031688A0701D512A5B9
:1003900002E0490704D511A5012401E0AFF3008074
:1003A00000210A2206F1240709E0B0FBF2FCB0FBB1
:1003B000F2F302FB1C00303078541846491C002828
:1003C000F3D123462A463046BDE8F04100F05EB93D
:1003D000000000002D0000002B00000020000000A5
:1003E0002DE9F05F894604464FF0000ADFF824B19A
:1003F000FB44C0F820A02046E168884700287DD053
:10040000252806D0D4E901219047206A401C2062AB
:10041000F1E700255F462046E16888472028064628
:1004200007DB312E05D2B81910F8200C08B10543AE
:10043000F1E7A80701D525F00405C4F81CA00027A2
:10044000C4F818A02A2E09D0304603F08DFB38B32B
:1004500004EB8708303EC8F8186019E059F8041B0F
:10046000204604EB87029161E1688847012F064628
:1004700018D1E069002820DA25F020051DE0D8F821
:10048000180000EB800006EB40003038C8F8180078
:100490002046E1688847064603F066FB0028EED157
:1004A000012F0AD02E2E08D12046E16888477F1CF4
:1004B0000646022F45F02005C4DBA069002803DAB8
:1004C000404245F00105A061E80701D025F0100584
:1004D000A6B1A6F14100192802D8203645F40065DE
:1004E0004A463146204625604D46FFF787FE60B1FB
:1004F000012807D0ED1D25F0070000E007E000F11E
:10050000080978E705F1040975E730467AE7206ABB
:10051000BDE8F09F2A8B000040EA010310B59B075D
:100520000FD1042A0DD310C808C9121F9C42F8D05D
:1005300020BA19BA884201D9012010BD4FF0FF300E
:1005400010BD1AB1D30703D0521C07E0002010BD24
:1005500010F8013B11F8014B1B1B07D110F8013BB0
:1005600011F8014B1B1B01D1921EF1D1184610BD91
:1005700002F0FF0343EA032242EA024200F020BBFA
:10058000704770477047704753EA020C00F069806B
:100590002DE9F04B4FF00006002B1FBFB3FA83F597
:1005A00003FA05F424FA05F65E4012BF1643B2FAC8
:1005B00082F502FA05F4C5F120051EBF22FA05FCFA
:1005C00044EA0C04203556EA044C4FEA144418BFA0
:1005D000641C4FF000084FF00009904271EB030CCF
:1005E00039D3002919BFB1FA81F701FA07F6B0FA39
:1005F00080F700FA07F6C7F120071EBF20FA07FCB4
:1006000046EA0C062037B6FBF4FCA7EB0507103FC3
:1006100007F01F0BCBF120060CFA0BFB2CFA06F6A9
:1006200044BFB3460026202FA4BF5E464FF0000B08
:100630005BEA060C08BF4FF0010B19EB0B09ABFB93
:10064000027C48EB0608C01B06FB02CC0BFB03CC6C
:1006500071EB0C01C1E70B46024641464846BDE836
:10066000F08B13B54FF000004FF00001AFF30080A6
:10067000BDE81C40704710B500F0C6FA006810BD18
:1006800010B5044600F0C0FA046010BD2DE9F04733
:100690000D4699469246044600F1240801688806F2
:1006A00004D5E06921F01001216000E00120A8429A
:1006B00001DD471B00E00027A1697A1902EB090060
:1006C000081AA0612078C00602D42046FFF724FE55
:1006D000002608E0D4E901211AF806009047206AB4
:1006E000401C761C20624E45F4DB2078C0060AD5FB
:1006F0002046FFF711FE06E0D4E9012130209047A3
:10070000206A401C2062381EA7F10107F4DC07E0D4
:10071000D4E9012118F805009047206A401C2062A6
:10072000281EA5F10105F3DC2046FFF70BFE20781B
:10073000000602D50220BDE8F0870120FBE77047E4
:100740002DE9FF4F0C461E464FF0FF378BB0D2E924
:100750000001DDF860800A908A46C1F30A5505B9A8
:100760003D46002108464FF00000BAF1000F00F4AA
:10077000400005DA00EB80004FF4400101EA500030
:100780004FEA9059B9F1010F00DDB9460A9850EAD5
:100790004A000ED044F61050A5F2FF3545432F1401
:1007A000B8F1000F1ED07542291E1EDDC9F10002EE
:1007B0001CE0B8F1010F4FF0000001D0302103E040
:1007C000F24305E02154401CB042FBDB30460022DE
:1007D000002121540B99C1F80880C1E900200FB015
:1007E000BDE8F08FBD1B6D1CDEE74A4600DA6942AA
:1007F00006A800F093FA06AB93E8070003AB83E882
:10080000070050460A9900F099FB8DE80700A0F513
:1008100000501F3800900398002D0ADD42F21F019E
:100820004A460844002303A90390684600F002FEEC
:1008300009E0A0F500504A461F38002303A90390A1
:10084000684600F00CFE8DE807000004000C03D0A1
:100850004FF0FF30410800E01046B8F1000F03D020
:100860000022009215461EE0751E05D400F0D0F956
:10087000303262556D1EF9D5B3460122084302D0CD
:1008800000227F1C04E02078302801D100227F1E46
:10089000002A099784D01DE0112D07DA00F0B8F97D
:1008A000303262556D1C50EA0102F5D1084302D086
:1008B0000098C8B10EE00021681E05E0235C625C70
:1008C00063542254401E491C8142F7DBAB46A81BEF
:1008D000401E0990002004F80B000B98099AC0F8FC
:1008E0000880C0E9002B7AE711264FF0000857E78F
:1008F0002DE9F04F88460446D21D22F0070191B041
:10090000D1E90001CDE90A0102F051FC02460B9841
:10091000C00F01D02D2007E02068810701D52B20D2
:1009200002E0202101EAC000032A099001D0072A31
:1009300005DB03464146204600F0B0F90BE1207884
:10094000800601D5E06900E00620B8F1650F814618
:1009500006D0B8F1660F18D0B8F1670F70D131E04A
:100960000020B9F1110F009001DB112301E009F122
:1009700001030AAA01A90CA8FFF7E2FEDDE90C7049
:10098000002609F10105834647E001204B4600900F
:100990004FF000470AAA01A90CA8FFF7D1FEDDE934
:1009A0000DB00C995D46002610B909F101000D1833
:1009B000B9EB050003D4C0F1FF3609F10105A5EB41
:1009C00009002BE0B9F1010F01DA4FF00109002015
:1009D000B9F1110F0090484601DD112300E00346F4
:1009E0000AAA01A90CA8FFF7ABFEDDE90C704D4681
:1009F00000268346207800070AD4AB4500DA5D461E
:100A000001A8012D04DD411911F8011C302907D07E
:100A10004F4502DA17F1040F04DA012082460FE095
:100A20006D1EEEE7002F02DCED1B3E4403E0781C58
:100A3000A84200DD7D1CB81B00F1010A4FF0004701
:100A40002078000703D4AA4501DB4FF0FF3A0021CC
:100A5000B7F1004F0DF143088DF8431024D0022068
:100A60002B23002F01DA7F422D230A21021EA0F141
:100A7000010000DC5FB197FBF1FC97FBF1F201FB99
:100A80001C7C17460CF1300C08F801CDEEE7A8F1FC
:100A9000010003702188090501D5452100E0652189
:100AA000A0F1010800F8011C09980FA9A1EB0807A3
:100AB000FF1D00B10120411901EBEA70A169384422
:100AC000081A401EA0612078C00602D42046FFF715
:100AD00023FC099828B1D4E901219047206A401CE1
:100AE00020622078C00622D52046FFF715FC1EE0C4
:100AF000002E04DBB34502DD01A8805D00E030205C
:100B0000D4E901219047206A401C2062761CAAF19A
:100B100001005FEA000A0AD100F072F8C0680168BB
:100B2000405CD4E901219047206A401C2062281EC5
:100B3000A5F10105DCDC07E0D4E9012118F8010B7F
:100B40009047206A401C2062381EA7F10107F3DCA1
:100B50002046FFF7F7FB032011B041E601694A1C6C
:100B600002610878704700B58FB0CDE901310021EE
:100B7000059105497944CDE9031011466846FFF710
:100B80002FFC0FB000BD0000E5FFFFFF0A6802F870
:100B9000010B0A6070470000074B70B50D467B449F
:100BA000FFF7E1FF0446284600F02AF910B14FF0A4
:100BB000FF3070BD204670BD3B4000004FF000028A
:100BC0000429C0F0128010F0030C00F01F81CCF15A
:100BD000040CBCF1020F18BF00F8012BA8BF20F8CD
:100BE000022BA1EB0C0100F011B95FEAC17C24BF1C
:100BF00000F8012B00F8012B48BF00F8012B7047CB
:100C000000487047640500200048704744050020F4
:100C100030B5B0F10A024FEA900E71F100034EEACE
:100C2000817EB0EB0E0061EB91014FEA101E4EEA9F
:100C3000017E10EB0E0041EB11114FEA102E4EEA2F
:100C4000016E10EB0E0041EB11214FEA104E4EEAFF
:100C5000014E10EB0E0041EB1141401841F1000133
:100C60004FEAD00040EA41704FEAD10110EB800515
:100C70004FEA810444EA907444EB01046D1944EB9B
:100C80000404521BA3414FF0000348BF0A3200D5B1
:100C900030BD401C41F1000130BD00002DE9F041A4
:100CA0001F46044603260168072A01F4006004DB9E
:100CB00008B116A505E016A503E008B115A500E0EA
:100CC00015A521F010002060A069C01EA0610FB121
:100CD000401EA0612046FFF71FFB4FB1D4E9012160
:100CE00038469047206A401C2062C01C206206E003
:100CF000206AFAE7D4E9012115F8010B9047761E26
:100D0000F8D22046FFF71EFBBDE8F0814E414E00B1
:100D10006E616E00494E4600696E66002DE9F0472F
:100D2000814616468AB0354878440DC88DE80D00D6
:100D300032487844801C03AC0DC884E80D0041F6AD
:100D40009B300844372190FBF1F290FBF1F5A5F1BF
:100D5000800501FB12041B3C02D56442012000E027
:100D60000020DFF898A080460027FA44AAF1BE0AC6
:100D70000EE0E0070AD03246684607EB4701012340
:100D80000AEB810100F06BFB8DE8070064107F1C0B
:100D9000002CEED1194F7F44AE3F19E0E80715D083
:100DA00007EB04100DF1180A90E80E008AE80E0017
:100DB000C068F04201D1981908903246012306A973
:100DC00003A800F04CFB03AB83E807006D10641C24
:100DD000002DE3D14FF0010332466946B8F1000F10
:100DE00003A802D000F026FB01E000F038FBC9E9BF
:100DF0000001C9F808200AB0BDE8F0877083000040
:100E0000007B00F0800070474FF0000200B51346F1
:100E100094469646203922BFA0E80C50A0E80C501A
:100E2000B1F12001BFF4F7AF090728BFA0E80C50CB
:100E300048BF0CC05DF804EB890028BF40F8042BC4
:100E400008BF704748BF20F8022B11F0804F18BF31
:100E500000F8012B7047000000487047440500204F
:100E60007546FFF7F9FFAE4605006946534620F088
:100E70000700854618B020B5FFF7F4F9BDE820401B
:100E80004FF000064FF000074FF000084FF0000B46
:100E900021F00701AC46ACE8C009ACE8C009ACE8F9
:100EA000C009ACE8C0098D46704710B50446AFF3E1
:100EB00000802046BDE81040FFF7BFB94FF0013C6D
:100EC00050F8042B51F8043B9A4221D1A2EB0C03B9
:100ED000934313EACC1317D150F8042B51F8043B79
:100EE0009A4215D1A2EB0C03934313EACC130BD116
:100EF00050F8042B51F8043B9A4209D1A2EB0C03A1
:100F0000934313EACC13DBD04FF00000704700BFCF
:100F1000D01A01BAB1FA81F101F0180122FA01F0F8
:100F2000CB40C1F12001DBB2C0B2C01A2CFA01F3F0
:100F3000D11A914311EAC311E6D170475FEA400C20
:100F400008BF91F0000F4FEA8C234FEAC12243EA19
:100F500051514FEA1C5018BF00F5F0404FEA3000E5
:100F600018BF41F000415FEA6C5C00F02980BCF1E1
:100F7000FF3F08BF40F080407047130C06BF1204CB
:100F80004FF0100C4FF0000C130E04BF12020CF1C6
:100F9000080C130F04BF12010CF1040C930F04BFD3
:100FA00092000CF1020CD30F04BF52000CF1010CA3
:100FB00011464FF00002A0F11F00A0EB0C0070479B
:100FC00011F0004F08BF704731F000413FF4D5AF3A
:100FD0000B0C06BF09044FF0100C4FF0000C0B0E69
:100FE00004BF09020CF1080C0B0F04BF09010CF13E
:100FF000040C8B0F04BF89000CF1020CCB0F04BF53
:1010000049000CF1010CCCF12003A0EB0C0022FAFA
:1010100003F302FA0CF241EA030100F10100704708
:1010200020F07F4C80EA030023F07F47ACEB0703FE
:1010300003F57C5300F0004003F1FF032DE98049E4
:101040004FEA154B09B44FEA144325EA0B4E24EA44
:1010500003480FF2042606EB132749083E785FEA9F
:10106000320203FB0667C7F5000707FB06F64FEAE7
:1010700054374FEAD64606F1020607FB066CCCF160
:10108000005C4FEA1C472CEA074C07FB06F40CFBFC
:1010900006F504EB15464FEA961634BF00204FF0D4
:1010A00000404FEAD13706FB07FC4FEA1C4C0CFB13
:1010B0000BF7D21B03FB0CF761EB07010CFB0EF7E0
:1010C000B0EB074072EB17420CFB08F734BFA2EB02
:1010D0000742B2EB074261EB17414FEA0C444FEA7B
:1010E000910706FB07FC4FEA1C4C0CFB0BF7B0EB1F
:1010F000C74072EB573203FB0CF734BFA2EBC74279
:10110000B2EBC74261EB57310CFB0EF7B0EBC700F7
:1011100072EB57720CFB08F734BFA2EBC702B2EBBD
:10112000C70261EB5771039F4FEA816141EA921157
:1011300004EBCC044FEAD1374FEA826206FB07FC8E
:1011400042EA90124FEA80604FEA1C4C0CFB0BF70E
:10115000D21B03FB0CF761EB07010CFB0EF7B0EBA6
:10116000074072EB17420CFB08F734BFA2EB0742B3
:10117000B2EB074261EB17414FEA8C554FEA9107FA
:1011800004EB9C2406FB07FC4FEA1C4C0CFB0BF702
:10119000B0EBC74072EB573203FB0CF734BFA2EB46
:1011A000C742B2EBC74261EB57310CFB0EF7B0EB15
:1011B000C70072EB57720CFB08F734BFA2EBC702F3
:1011C000B2EBC70261EB577115EB4C254FEA816119
:1011D00041EA92114FEA82624FEAD13742EA901215
:1011E00006FB07FC44F100044FEA80604FEA1C4C08
:1011F0000CFB0BF7D21B03FB0CF761EB07010CFB9D
:101200000EF7B0EB074072EB17420CFB08F734BF48
:10121000A2EB0742B2EB074261EB174115EB1C153D
:101220004FEA813141EA92414FEA823242EA9042EA
:101230004FEA80304FEA0C7644F1000448EA034359
:101240004EEA0B484FF0000EB2EB080C71EB0307AF
:1012500024BF624639464EEB0E0E4FF0000B0018CD
:10126000524149414BEB0B0BB2EB080C71EB0307FE
:101270007BF1000B24BF624639464EEB0E0E4FF059
:10128000000B0018524149414BEB0B0BB2EB080C21
:1012900071EB03077BF1000B24BF624639464EEB2E
:1012A0000E0E51EA020718BF46F0010616EB0E7645
:1012B00055F1000254F1000103D5BDE88901BDE8F4
:1012C0000088BDE88901BDE80048B619524141EBEC
:1012D0000101A3F10103704780807F7E7D7C7B7AD2
:1012E0007978777676757473727171706F6E6E6DD2
:1012F0006C6C6B6A6A696868676666656464636378
:1013000062616160605F5F5E5E5D5D5C5C5B5B5AFD
:101310005A5959585857575656555555545453536A
:1013200052525251515050504F4F4F4E4E4D4D4DC5
:101330004C4C4C4B4B4B4A4A4A4949494848484710
:10134000474747464646454545444444444343434E
:101350004342424242414141002B9C4630D47700F7
:101360002BD01CB54FEA370703B44FF010004FF0F5
:101370001001BAF1000F06D0BCF1000FDCBF40F045
:10138000080040F008014FF000000FBCBDE810401D
:101390000BF1010BBBF1010F08BF5FEA170722BF7A
:1013A00012F1010211F101014FF0004143F100037C
:1013B00000F0004043EA00007047F9D35708D0E737
:1013C00046EA064613F1400F4FEA16461FDD13F1B9
:1013D000200FDFBF16430A46002120335B42BED0F8
:1013E000C3F1200746EA064602FA07F74FEA164617
:1013F00046EA0706C3F1200722FA03F201FA07F7CB
:1014000021FA03F14FF0000342EA0702A7E746EA98
:10141000020646EA06464FEA164646EA0106BCBF01
:1014200046EA0646360C4FF000034FF000024FF03C
:10143000000194E72DE9804C9A46934670B491E8F8
:10144000380007C831EA400C48BF34EA430C03D5E2
:10145000FFF7E6FDFFF780FFF0BCBDE8008C2DE94B
:10146000804C9A46934670B491E8380007C810F053
:10147000804F08BF13F0804F03D100F005F8FFF74D
:101480006BFFF0BCBDE8008C20F07F4780EA0300D2
:1014900023F07F4C07EB0C03A3F57C5300F00040D6
:1014A000A3F1FE0392F0000F00F0B38095F0000F5F
:1014B00000F077802DE901494FEA11404FEA1446C8
:1014C00021EA004800FB06FC24EA064708FB06F672
:1014D00007FB08F800FB07F718EB06484CEB164C27
:1014E0004FEA124B18EB07484FEA15464CEB1740F2
:1014F00022EA0B4E0BFB06FC25EA06470EFB06F61E
:1015000007FB0EFE0BFB07F71EEB064E4CEB164CD3
:101510004FF000061EEB074E4CEB174B18EB0B0879
:1015200040F1000018EB0E0B58EB000840F10000F2
:101530008F1A4FF000013CBFC943661B14BFB5EBC7
:10154000040C00213CBFC943F61B4FEA17444EEA86
:101550008E0E27EA04454FEA1C4704FB07622CEA7B
:10156000074C05FB07F70CFB05F604FB0CFC16EB20
:10157000074642EB174216EB0C4642EB1C421BEBB4
:10158000060658EB0202414146EA9E0601D5BDE837
:101590000189B619524141EB0101A3F10103BDE8F4
:1015A00001894FEA14454FEA114724EA054621EA2A
:1015B000074C05FB07F406FB07F70CFB06F105FBE0
:1015C0000CFC11EB074144EB17444FEA124711EBB7
:1015D0000C4144EB1C4422EA074C05FB07F206FBD6
:1015E00007F70CFB06F605FB0CFC16EB074642EB77
:1015F000174216EB0C4642EB1C456A1854F10001E9
:1016000048BF7047B619524141EB0101A3F10103F4
:10161000704795F0000F37D04FEA11424FEA144758
:1016200021EA024624EA074C02FB07F106FB07F712
:101630000CFB06F402FB0CFC14EB074441EB1741D6
:101640004FEA154714EB0C4441EB1C4125EA074CCB
:1016500002FB07F506FB07F70CFB06F602FB0CFC8A
:1016600016EB074645EB174516EB0C4645EB1C42BF
:10167000121951F1000148BF7047B619524141EBB0
:101680000101A3F1010370474FEA14454FEA1147E6
:1016900024EA054621EA074C05FB07F106FB07F79C
:1016A0000CFB06F24FF0000605FB0CFC12EB0742A8
:1016B00041EB174112EB0C4251EB1C4148BF704704
:1016C000921841EB0101A3F10103704721B1826837
:1016D00042F00102826003E0826822F0010282602F
:1016E000704700000021084A1168084A1140D0E9FB
:1016F00000231A4383681A43C3681A431143044AF8
:10170000C2F804137047000004230140E030FCFFDE
:10171000002001400146C86C80B27047024600209C
:1017200013680B400BB1012000E00020704700005F
:1017300030B50246002000235068104C20400D793F
:101740000C6844EA05242043506090680C4C20400B
:10175000D1E903542C438D682C434D7944EA450468
:1017600020439060D06A20F470000C7D641EE4B2C7
:10177000234340EA0350D06230BD0000FFFEFFFC6F
:10178000FDF7FFC0F0B504460D4600200021092DED
:1017900011DDE068A5F10A0606EB4607072606FA02
:1017A00007F18843A5F10A0606EB460603FA06F19F
:1017B0000843E0600CE0206905EB4507072606FAC0
:1017C00007F1884305EB450603FA06F1084320615B
:1017D000072A0FDA606B561E06EB86071F2606FAED
:1017E00007F18843561E06EB860605FA06F1084304
:1017F000606322E00D2A0FDA206BD61F06EB860706
:101800001F2606FA07F18843D61F06EB860605FA5F
:1018100006F10843206310E0E06AA2F10D0606EB32
:1018200086071F2606FA07F18843A2F10D0606EB8C
:10183000860605FA06F10843E062F0BD816841F0D2
:10184000804181607047000000B58DB001210846DD
:1018500001F096F80121080201F0B2F801200B9086
:1018600003208DF8300000208DF833000BA91548B7
:1018700000F0A0F80121080201F0B2F800214FF4B5
:10188000807001F0ADF8002007900A9009904FF4A5
:101890008030089007A8FFF725FF002001908DF801
:1018A00008008DF809000390059001208DF81800BC
:1018B00001A90548FFF73CFF01210348FFF706FF98
:1018C0000DB000BD000002400020014000BFFEE757
:1018D00000200CE0002106E00022064B03EBC013C1
:1018E0005A544A1CD1B28029F6DB421CD0B20828D7
:1018F000F0DB7047690000202DE9F04304460D46F7
:1019000016461F46E819C7B23019C6B2A9460FE0FD
:10191000A04607E04946404600F00EF808F10100F5
:1019200000F0FF08B045F5DB09F1010000F0FF0908
:10193000B945EDDBBDE8F08370B504460D46294698
:10194000204600F0B3FF0F494878C11700EB5171F2
:10195000CB100C494878C11700EB5171C910A0EBAE
:10196000C101CEB2084800EBC31006490978405CBB
:101970000121B1408843044901EBC311014A1278A7
:10198000885470BD050000206900002070470000E9
:1019900010B54FF48051064800F05DF8E12001F0E9
:1019A0009DF84FF48051024800F057F810BD000038
:1019B00000000240F0B50A4600210023002400BFC9
:1019C0003DE0012505FA01F3156805EA03049C4290
:1019D00034D105684F000326BE40B5430560157934
:1019E0004E00B5400668354305601579012D02D0DB
:1019F0001579022D16D185684F000326BE40B543E8
:101A0000856055794E00B5408668354385604568E8
:101A100001268E40B5434560456896798E40B6B242
:101A200035434560C5684F000326BE40B543C560D9
:101A3000D5794E00B540C6683543C560491C1029AC
:101A4000BFD3F0BD0246002013690B400BB101204B
:101A500000E0002070474183704701837047000019
:101A600001480078704700004600002010B5044689
:101A70000723012221460848FFF784FE0648FFF7A6
:101A8000DDFE00BF02210448FFF748FE0028F9D020
:101A90000148FFF73FFE10BD002001402DE9F04155
:101AA00007460C460025002608E03846FFF7DEFF13
:101AB0000544052002F01AF9701CC6B2A642F4DBF8
:101AC000B5FBF4F080B2BDE8F08100BFFEE7000096
:101AD00010B500200F4908600F48006820F440202E
:101AE0000D4908600846006840F480200860002026
:101AF0000A49C1F8A402022002F014F901200549A4
:101B00000860022002F00EF900200449C1F8A0028A
:101B100010BD0000A082404200040240008040420C
:101B20001CB50121022000F02BFF4FF44070009003
:101B300001208DF8040000208DF8060003208DF8A8
:101B4000050001208DF8070069460548FFF732FFC0
:101B50000120044908600449C1F8A4021CBD00002A
:101B600000040240A08240420080404210B50020A4
:101B70000F4908600F48006820F440200D490860B4
:101B80000846006840F48020086001200A49C1F836
:101B9000A402022002F0C6F80120054908600220D4
:101BA00002F0C0F800200449C1F8A00210BD0000F6
:101BB000A0824042000402400080404270B50546C9
:101BC00000241648006820F44020144908600846A4
:101BD00000680860002616E0002011490860022015
:101BE00002F0A0F801200F49C1F8A0026006040E1F
:101BF0000B487C38006808B1601CC4B2012002F0B8
:101C000091F8701CC6B2082EE6DB15B9FFF7AEFFDF
:101C100001E0FFF75DFF204670BD000000040240B8
:101C2000A08240420080404270B5044615480068DA
:101C300020F44020134908600846006840F48020E2
:101C40000860002010490860002517E0E0090E49EF
:101C5000091D08606006040E022002F063F80120EE
:101C60000A49C1F8A002022002F05CF800200649EF
:101C70000860022002F056F8681CC5B2082DE5DBAA
:101C800070BD000000040240A0824042008040423B
:101C900010B50F48006820F440200D490860084640
:101CA000006840F48020086001200A4908600A4961
:101CB000C1F8A002042002F035F8002005490860B0
:101CC000042002F02FF800200349C1F8A00210BD43
:101CD00000040240A48240420080404210B50F48F8
:101CE000006820F440200D4908600846006840F470
:101CF0008020086000200A4908600A49C1F8A4024F
:101D0000042002F00FF80120054908600549C1F8D8
:101D1000A402042002F006F810BD000000040240F6
:101D2000A08240420080404210B500241348006861
:101D300020F440201149086008460068086001202E
:101D40000F49086001F0EEFF01200E49C1F8A00222
:101D500001F0E8FF07E0601CC4B2FA2C03DDFFF7D6
:101D6000BDFF012010BD0648803800680028F2D170
:101D70000349091F086000BFF4E7000000040240A7
:101D8000A4824042008040421CB50121084600F078
:101D9000F7FD4FF40060009001208DF80400002052
:101DA0008DF8060003208DF8050001208DF807004E
:101DB00069463F48FFF7FEFD0121084600F0E0FDBF
:101DC0004FF48050009001208DF8040000208DF821
:101DD000060003208DF8050001208DF807006946F4
:101DE0003348FFF7E7FD0121042000F0C9FD4FF45F
:101DF0000070009001208DF8040000208DF806008E
:101E000003208DF8050001208DF807006946294858
:101E1000FFF7D0FD0121042000F0B2FD80200090EA
:101E200000208DF8040001208DF8070003208DF8B4
:101E3000050069461F48FFF7BDFD0121084600F077
:101E40009FFD4FF48070009001208DF80400002069
:101E50008DF8060003208DF8050001208DF807009D
:101E600069461348FFF7A6FD0121042000F088FD14
:101E70004FF48070009000208DF8040001208DF850
:101E8000070003208DF8050069460A48FFF792FD18
:101E90004FF400610648FFF7DEFD4FF4805104481F
:101EA000FFF7DBFD4FF400710248FFF7D4FD1CBDC6
:101EB00000000240000802401CB50121084600F065
:101EC0005FFD4FF48070009001208DF80400002029
:101ED0008DF8060003208DF8050001208DF807001D
:101EE00069460448FFF766FD4FF480710148FFF72B
:101EF000B4FD1CBD0000024070B504460D4605F15E
:101F0000B001C8B200F002FD102101EB141000F086
:101F1000FDFC04F00F0000F0F9FC70BD2DE9FC4160
:101F200004460D4616466B4606223B21682000F00B
:101F3000E1F80746BFB99DF801009DF8001040EA9E
:101F4000012000B220809DF803009DF8021040EAB5
:101F5000012000B228809DF805009DF8041040EA99
:101F6000012000B230803846BDE8FC812DE9FC41FB
:101F700004460D4616466B4606224321682000F0B3
:101F8000B9F80746BFB99DF801009DF8001040EA76
:101F9000012000B220809DF803009DF8021040EA65
:101FA000012000B228809DF805009DF8041040EA49
:101FB000012000B230803846BDE8FC8110B52DED1F
:101FC000088B82B001AB02224121682000F092F818
:101FD0009DF805009DF8041040EA012004B2204657
:101FE00004F00AFF41EC1B0B9FED100B53EC102B80
:101FF00004F0AAFD41EC1A0B9FED0E0B53EC102BD5
:1020000004F0FAFC41EC190B04F0C4FC08EE100AD1
:102010009FED0A0A28EE000ABDEEC00A10EE100A73
:1020200000B202B0BDEC088B10BD00000000000043
:1020300000407540A4703D0AD74342400000C842AA
:1020400010B5FFF76DFD80216B2000F0D7F86420FC
:1020500001F04CFE00216B2000F0D0F8032000F0CE
:102060008BF8002000F080F8322000F0AAF8002160
:10207000382000F0C3F800216A2000F0BFF80021EA
:10208000232000F0BBF88021372000F0B7F875203E
:1020900000F013F80446682C0BD101216B2000F0EE
:1020A000ADF800216C2000F0A9F8322000F089F88A
:1020B00001E0012010BD0020FCE770B50446FFF7E9
:1020C000E7FDD020FFF7B0FDFFF72EFE2046FFF71B
:1020D000ABFDFFF729FEFFF7DBFDD120FFF7A4FDE5
:1020E000FFF722FE0020FFF769FD0546FFF7F6FD2A
:1020F000284670BD2DE9F04106460F4614461D46A0
:10210000FFF7C6FD002141EA4601C8B2FFF78CFD8A
:10211000FFF70AFE20B1FFF7E1FD0120BDE8F081E5
:102120003846FFF781FDFFF7FFFDFFF7B1FD012105
:1021300001EB4601C8B2FFF777FDFFF7F5FD0DE0B3
:10214000012C04D10020FFF739FD287003E00120A5
:10215000FFF734FD2870601EC4B26D1C002CEFD157
:10216000FFF7BCFD0020D9E710B50446E006010EDC
:102170001C2000F043F810BD10B50446E006010E27
:102180001B2000F03BF810BD70B504460025BC2CA8
:1021900001DB012510E0622C01DB02250CE02A2C7A
:1021A00001DB032508E0142C01DB042504E00A2CE4
:1021B00001DB052500E0062529461A2000F01EF85F
:1021C00070BD70B50446B4F57A7F01DD4FF47A74C2
:1021D000042C00DA04244FF47A7090FBF4F0401ED3
:1021E000C5B22946192000F009F80546264604EB39
:1021F000D671C1F34F00FFF7C7FF70BD70B505463C
:102200000C46FFF745FDD020FFF70EFDFFF78CFDD4
:1022100018B1FFF763FD012070BD2846FFF704FDEC
:10222000FFF782FD2046FFF7FFFCFFF77DFD18B1A9
:10223000FFF754FD0120EFE7FFF750FD0020EBE72B
:102240002DE9F04105460E4617469846FFF720FD5A
:10225000002141EA4501C8B2FFF7E6FCFFF764FD43
:1022600020B1FFF73BFD0120BDE8F0813046FFF7CC
:10227000DBFCFFF759FD00240CE018F80400FFF721
:10228000D3FCFFF751FD18B1FFF728FD0120EBE764
:10229000601CC4B2BC42F0DBFFF720FD0020E3E786
:1022A00000BFFEE7704708B54FF4C06000F064F966
:1022B00019208DF8000000208DF8010001208DF814
:1022C00002008DF80300684600F01AF94FF4C06070
:1022D00000F052F91C208DF8000000208DF801005C
:1022E00002208DF8020001208DF80300684600F0FE
:1022F00007F94FF4C06000F03FF91D208DF8000091
:1023000000208DF8010003208DF8020001208DF8D7
:102310000300684600F0F4F84FF4C06000F02CF9B8
:102320001E208DF8000000208DF8010004208DF89B
:10233000020001208DF80300684600F0E1F84FF438
:10234000C06000F019F932208DF8000000208DF8EF
:10235000010005208DF8020001208DF80300684679
:1023600000F0CEF84FF4C06000F006F936208DF88A
:10237000000000208DF8010006208DF802000120E9
:102380008DF80300684600F0BBF84FF4C06000F021
:10239000F3F837208DF8000000208DF801000720A9
:1023A0008DF8020001208DF80300684600F0A8F8BF
:1023B0004FF4C06000F0E0F82C208DF80000012000
:1023C0008DF8010000208DF8020001208DF8030037
:1023D000684600F095F84FF4A06000F0CDF8252095
:1023E0008DF8000000208DF801008DF8020001201A
:1023F0008DF80300684600F083F84FF4A06000F009
:10240000BBF826208DF8000000208DF80100012087
:102410008DF802008DF80300684600F071F84FF463
:10242000A06000F0A9F827208DF8000000208DF8AA
:10243000010002208DF8020001208DF8030068469B
:1024400000F05EF84FF4A06000F096F834208DF8AC
:10245000000000208DF8010003208DF8020001200B
:102460008DF80300684600F04BF84FF4A06000F0D0
:1024700083F807208DF8000001208DF8010000206E
:102480008DF8020001208DF80300684600F038F84E
:102490004FF4A06000F070F806208DF800000120D5
:1024A0008DF801008DF802008DF80300684600F0F9
:1024B00027F84FF4A06000F05FF817208DF80000B7
:1024C00001208DF8010002208DF8020001208DF816
:1024D0000300684600F014F84FF4A06000F04CF8D8
:1024E00028208DF8000001208DF8010003208DF8D0
:1024F000020001208DF80300684600F001F808BDD5
:1025000070B5002100230F22C4781CB3174C246837
:1025100004F4E064C4F5E064C4F30721C1F10404E9
:10252000E3B20A4144789C40E1B2847814402143EC
:102530000C07210E0E4C05786155047804F01F0538
:102540000124AC4005786D11AD0005F1E025C5F81A
:10255000004109E0047804F01F050124AC40054D5A
:102560000678761145F8264070BD00000CED00E0BD
:1025700000E400E080E100E002490143024A11600A
:10258000704700000000FA050CED00E010B5FFF701
:102590009FF900F085FA10BD2DE9F04781468A4683
:1025A00015461E465146484600F080F9104800780E
:1025B000104908700E484078487025B1304600F048
:1025C000B7FD044603E0304600F0E2FD04464FF05C
:1025D000080804EB44004006070E064A51781078BC
:1025E00043463A4600F024FA2046BDE8F087000052
:1025F00005000020070000202DE9FC4105460E469D
:1026000017461C4622460BA16846FDF76FFE804622
:1026100008EB48004006020E082331462846FFF723
:102620006BF96B463A4631462846FFF7B5FFBDE8E1
:10263000FC8100002530346400000000F0B52DED71
:10264000048B83B004460D461646B0EE408A18EE61
:10265000100A04F0BBFE41EC190B53EC192B0CA132
:102660006846FDF743FE074607EB47004006020EAB
:10267000082329462046FFF73FF96B463246294694
:102680002046FFF789FF03B0BDEC048BF0BD0000CE
:102690002530352E3266000010B500F077F84FF483
:1026A00080413948FFF7D9F90A2001F01FFB4FF4A8
:1026B00080413548FFF7CFF90A2001F017FB4FF4AE
:1026C00080413148FFF7C9F90A2001F00FFBAE2025
:1026D00000F01CF9022000F019F9102000F016F9A2
:1026E000402000F013F9812000F010F9CF2000F015
:1026F0000DF9A12000F00AF9C82000F007F9A62082
:1027000000F004F9A82000F001F93F2000F0FEF8E5
:10271000812000F0FBF8FF2000F0F8F8D32000F053
:10272000F5F8002000F0F2F8D52000F0EFF8802056
:1027300000F0ECF8D92000F0E9F8F12000F0E6F81C
:10274000DA2000F0E3F8122000F0E0F8DB2000F0DF
:10275000DDF8402000F0DAF8202000F0D7F8022061
:1027600000F0D4F88D2000F0D1F8142000F0CEF85D
:10277000A42000F0CBF8A62000F0C8F8AF2000F0AD
:10278000C5F8FFF703FF10BD000402401CB501218E
:10279000022000F0F5F80121022000F0F1F80121FB
:1027A000022000F0EDF80121022000F0E9F80121FB
:1027B000042000F0E5F84FF48050009001208DF8DF
:1027C000040000208DF8060003208DF8050001208C
:1027D0008DF8070069463348FFF7ECF84FF4805155
:1027E0003048FFF73AF94FF40050009001208DF87F
:1027F000040000208DF8060003208DF8050001205C
:102800008DF8070069462748FFF7D4F84FF40051C8
:102810002448FFF722F94FF48040009001208DF802
:10282000040000208DF8060003208DF8050001202B
:102830008DF8070069461B48FFF7BCF84FF480414C
:102840001848FFF70AF94FF40040009001208DF876
:10285000040000208DF8060003208DF805000120FB
:102860008DF8070069460F48FFF7A4F84FF40041C0
:102870000C48FFF7F2F84020009001208DF804008A
:1028800000208DF8060003208DF8050001208DF84A
:10289000070069460448FFF78DF840210248FFF71A
:1028A000DCF81CBD0004024000080240402900DBA7
:1028B0000021802800DB0020014A51701070704711
:1028C0000500002070B50446002518E040210D48A1
:1028D000FFF7C1F804F0800028B14FF400410A4826
:1028E000FFF7BBF804E04FF400410748FFF7B3F8E7
:1028F00040210448FFF7B1F86006040E6D1C082D56
:10290000E4D370BD000802400004024010B5044644
:102910004FF480510848FFF79EF84FF400510648E5
:10292000FFF799F82046FFF7CDFF4FF4805102489A
:10293000FFF793F810BD00000004024010B50446F4
:102940004FF480510848FFF786F84FF400510648CD
:10295000FFF783F82046FFF7B5FF4FF48051024898
:10296000FFF77BF810BD00000004024010B50446DC
:102970008120FFF7CBFF2046FFF7C8FF10BD70474F
:1029800029B1064A12680243044B1A6004E0034A64
:1029900012688243014B1A607047000030380240D1
:1029A00029B1064A12680243044B1A6004E0034A44
:1029B00012688243014B1A607047000040380240A1
:1029C00029B1064A12680243044B1A6004E0034A24
:1029D00012688243014B1A6070470000443802407D
:1029E00029B1064A12680243044B1A6004E0034A04
:1029F00012688243014B1A6070470000243802407D
:102A000070B504464FF480510848FFF724F820467B
:102A100000F064F8002000F061F805464FF48051A2
:102A20000248FFF71AF8284670BD00000000024077
:102A30002DE9FC5F06460C4691469A462046E11772
:102A400004EB5171C1F3C70BB04604EB0A01481EF9
:102A5000C11700EB5171C1F3C701019106EB0900E9
:102A6000401EC0B200905D4612E029464046FFF786
:102A700043FA474607E0094901EBC511C85DFFF776
:102A80005DFF781CC7B200988742F4DD681CC5B2B0
:102A900001988542E9DDBDE8FC9F00006900002047
:102AA00070B500210846FFF727FA002411E0002541
:102AB0000BE021462846FFF71FFA074901EBC41136
:102AC000485DFFF73BFF681CC5B2802DF1DB601C41
:102AD000C4B2082CEBDB70BD6900002070B5044661
:102AE000002520E004F0800028B14FF480711048E8
:102AF000FEF7B3FF04E04FF480710D48FEF7ABFF23
:102B00004FF400710B48FEF7A8FF6006040E802109
:102B10000848FEF797FF04434FF400710548FEF79D
:102B20009AFF681CC5B2082DDCDB204670BD000092
:102B300000000240000802407047000010B5044643
:102B400044B94FF400610848FEF785FF00200749AB
:102B5000087007E04FF400610348FEF77EFF012094
:102B60000249087010BD000000000240460000202D
:102B700010B504460020FFF7E1FF2146052000F0D4
:102B8000E7FA10BD70B50446202C01DD202000E0DE
:102B9000204605460020FFF7D1FF2946112000F00E
:102BA000D7FA70BD10B504460020FFF7C7FF44F008
:102BB0000801062000F0CCFA10BD2DE9F0410446D2
:102BC0000E461546052D01DD052000E02846074686
:102BD000052C01DD052000E02046804608F10A01B1
:102BE000C8B23A46314600F061FABDE8F081000013
:102BF0000CB50020019000903448006840F480300B
:102C00003249086000BF3148006800F4003000908D
:102C10000198401C0190009818B90198B0F5A04F98
:102C2000F1D12A48006800F4003010B10120009072
:102C300001E0002000900098012846D12348403050
:102C4000006840F080502149403108602048006809
:102C500040F440401E4908601C48083000681B4989
:102C6000083108600846006840F4004008600846E3
:102C7000006840F4A05008601648091F0860081F4B
:102C8000006840F08070091F086000BF0F480068AE
:102C900000F000700028F9D040F205700E4908607D
:102CA0000A480830006820F003000849083108602D
:102CB0000846006840F00200086000BF0348083082
:102CC000006800F00C000828F8D10CBD0038024064
:102CD0000070004008544007003C024070B50446B4
:102CE0000D46052D01DD052000E02846064632464A
:102CF0002146102000F0DAF970BD10B50020FFF772
:102D00007FFE044624F001042146002000F020FA52
:102D100010BD042808D14FF0E021096941F00401F9
:102D20004FF0E022116107E04FF0E021096921F046
:102D300004014FF0E02211617047704710B515484B
:102D4000006840F47000134908601348006840F0C0
:102D500001001149086000200F49083108600E4841
:102D600000680E4908400C4908600D48091D0860BC
:102D7000081F006820F48020091F08600020064911
:102D80000C310860FFF734FF4FF0006001498039D3
:102D9000086010BD88ED00E000380240FFFFF6FE3D
:102DA000103000240EB50121880700F038F82320E8
:102DB000ADF800000020ADF80200ADF808008DF875
:102DC0000A0069464FF0804000F042F801221146A7
:102DD000900700F033F800214FF0804000F022F817
:102DE0000EBD000010B50121880700F018F8074853
:102DF0000088401C0549088008460088012804D145
:102E00000020088001200249087010BD4800002001
:102E10004A00002041004FF08042D1627047CA430F
:102E20000282704721B1028842F00102028004E070
:102E300002884FF6FE731A40028070471AB18389E8
:102E40000B43838102E083898B43838170470000B9
:102E500000220288184B98420ED0184B98420BD093
:102E6000B0F1804F08D0164B984205D0154B9842D0
:102E700002D0154B984204D14FF68F731A404B88FD
:102E80001A43124B984207D0114B984204D04FF688
:102E9000FF431A400B891A4302804B68C3620B88B8
:102EA0000385054B984202D0044B984201D18B7A9E
:102EB0000386012383827047000001400004014023
:102EC0000004004000080040000C004000100040DA
:102ED0000014004010B501210846FFF761FDFFF71F
:102EE00061FF44F62060FFF795FF01218807FFF797
:102EF00099FF10BD10B540F225511D4800F03EF875
:102F000010B31B4800F064F8C4B21A48008800F4FB
:102F10000040C8B91748008800F4804060B10A2C0E
:102F200003D000201349088020E01248008840F4B4
:102F300000401049088019E00D2C06D10D4800888A
:102F400040F480400B49088010E00A480088C0F334
:102F50000D0009490C5407480088401C05490880A9
:102F600008460088C72801DD0020088010BD000049
:102F700000100140540000207C04002070B502467F
:102F8000002400230025002040F66A16B14200D13B
:102F900000BFC1F3421501F01F03012606FA03F337
:102FA000012D02D19689334006E0022D02D1168A06
:102FB000334001E0968A33400C12012606FA04F4ED
:102FC0001688344013B10CB1012000E0002070BD20
:102FD00001468888C0F30800704700BFFEE7000084
:102FE00030B50146244C6378DC1703EB5474E010D1
:102FF000214C6378DC1703EB5474E410A3EBC40496
:10300000E2B21E4B03EBC0131B4C24781B5D01FA8C
:1030100002F42343194C04EBC014174D2D7863556B
:1030200092B1164C431C04EBC313134C24781B5D64
:10303000C2F1080441FA04F42343104D441C05EB8B
:10304000C4140D4D2D7863550B4B1B78802B0DDB75
:103050000023094C237023465B78083363702346B2
:103060005B78402B07DB0023637004E0024B1B7886
:103070005B1C014C237030BD05000020690000205E
:1030800030B5054600240BE0A5F1200101EB41011C
:10309000054A02EB4101085DFFF7A2FF601CC4B2C4
:1030A000062CF1DB30BD0000C67400082DE9F041AC
:1030B00005460E461746FEF7D3FC80460020FFF774
:1030C0003DFD4FF480510D48FEF7C5FC45F0200052
:1030D000FFF704FD002404E0305DFFF7FFFC601CF7
:1030E000C4B2BC42F8DB4FF480510448FEF7B5FC93
:1030F0004046FFF723FDBDE8F081000000000240DC
:1031000030B5054600240DE0A5F1200101EB410199
:10311000064A02EB4101095DC943C8B2FFF760FFEF
:10312000601CC4B2062CEFDB30BD0000C674000882
:1031300030B50446002505E014F8010BFFF7E0FF69
:10314000681CC5B220780028F6D1284630BD0000A2
:1031500070B504460D46FEF783FC06460020FFF7D7
:10316000EDFC4FF480510948FEF775FC44F0200057
:10317000FFF7B4FC2846FFF7B1FC4FF48051034839
:10318000FEF76BFC3046FFF7D9FC70BD0000024033
:1031900030B50446002505E014F8010BFFF770FF79
:1031A000681CC5B220780028F6D1284630BD03B48B
:1031B00001984100009850EAC12018BF04204A0D30
:1031C00018BF40F0010040F2FF72B2EB515F08BF40
:1031D00040F00200012808BF052002B0704700003F
:1031E00070B5C1482DED020B2DED0E8B82B0119DF7
:1031F00025F000449FEDBEDB9FEDBFEB84423EDB3C
:10320000A4F140511098A1F17F6108430FD0BC4850
:10321000844202DC28D1109830B39DED100B02B02F
:10322000BDEC0E8B02B0BDE8704000F069BC9DEDB6
:10323000100B53EC1D2B51EC100B03F007FE9DED12
:10324000100B41EC180B53EC1E2B51EC100B03F040
:10325000FDFD53EC182B03F0CFFB41EC100B02B03B
:10326000BDEC0E8B02B070BD0120FDF709FA02B073
:10327000BDEC0E8B02B0BDE8704000F055BCA1481B
:103280009FEDA18B844256DA9DED100BB4F1795F6E
:103290000ADA51EC100BFFF78AFF042808BF00F090
:1032A00053FC9DED100BDAE753EC102B51EC100B97
:1032B00003F0CCFD41EC190B95480621B0EE490A0C
:1032C000F0EE690A784400F09FFB53EC192B51ECA7
:1032D000100B03F0BBFD41EC1A0B8E48B0EE490A0F
:1032E000F0EE690A0421784400F08EFB53EC192BB0
:1032F00051EC100B03F0AAFD53EC182B03F07CFBF0
:1033000041EC100B51EC1A0B53EC102B03F01CFC8E
:10331000CDE900019DED000B53EC102B9DED100B42
:1033200051EC100B03F092FD9DED101B53EC112B93
:1033300003F062FBD2E09DED100B51EC100B01F09D
:1033400027FB53EC182B03F07FFE9FED730BCDE9A9
:10335000000153EC102B9DED000B51EC100B03F012
:1033600075FD41EC190B6E480621B0EE490AF0EEEE
:10337000690A784400F048FB53EC192B51EC100B10
:1033800003F064FD41EC1B0B6648B0EE490AF0EE19
:10339000690A0421784400F037FB53EC192B51ECF7
:1033A000100B03F053FD53EC182B03F025FB41ECFD
:1033B0001C0B51EC190B03F093FA41EC180B5A4813
:1033C0009FED5BABA04222DC53EC1C2B51EC1B0BA2
:1033D00003F0BAFBCDE900019DED000B51EC180B99
:1033E00053EC102B03F032FD53EC182B03F004FBCD
:1033F00053EC1A2B03F02AFD53EC1D2B03F0FCFEBB
:1034000053EC1E2B03F020FE41EC100B5FE08DED22
:10341000008B002000909DED000B51EC180B53EC3D
:10342000102B03F0E9FA9DED000B41EC1E0B53EC61
:10343000102B51EC100B03F009FD53EC192B03F08A
:1034400003FE53EC1E2B03F07FFB41EC190B53ECF6
:103450001C2B51EC1B0B03F077FB41EC1B0B53ECCB
:103460001A2B51EC190B03F0F1FC53EC1D2B03F05C
:10347000EBFD41EC190B53EC1A2B51EC180B03F03C
:10348000E5FC53EC1B2B03F0E1FC53EC192B03F090
:10349000B3FE9DED000B41EC180B53EC1A2B51ECD5
:1034A000100B03F0D3FC9FED249B53EC192B03F07E
:1034B000CBFD41EC100B51EC180B53EC102B03F02F
:1034C0009BFE53EC192B03F0BFFD41EC100B002DBC
:1034D0003FF7C5AE51EC100B03F050FA41EC100B66
:1034E000BDE60000000000000000F03F000000000A
:1034F000075C143326A6913C182D4454FB21F93F58
:103500000000F07F0000E03F000000000000F03FFE
:10351000685C0000765C0000000000000000E03FF6
:10352000BA5B0000C85B00003333EF3F00000000CF
:103530000000000000000040182D4454FB21E93F2A
:1035400070B59B482DED020B2DED068B079D25F0E8
:103550000044A04218DC9748844202DC0AD1069855
:1035600040B19DED060BBDEC068B02B0BDE870408E
:1035700000F0C6BA002DCCBF9FED8F0B9FED900BD6
:10358000BDEC068B02B070BD8F48A04215DD8F48A0
:10359000A042D8BF4FF0FF3458DD9DED060B51EC33
:1035A000100BFFF704FE042808BF00F0CDFA9DEDD4
:1035B000060BBDEC068B02B070BD9DED060B51EC09
:1035C000100B01F0E5F9CDE9060181489FED828BF2
:1035D000A0423CDD8248A0421FDD00249FED82AB6B
:1035E0009DED060B53EC1A2B51EC100B03F004FA73
:1035F0009DED060B41EC190B53EC1A2B51EC100B03
:1036000003F024FC53EC182B03F0F6FD53EC192BBC
:1036100003F09AFACDE9060149E09DED060B01247D
:1036200053EC182B51EC100B03F0E6F99DED060B53
:1036300041EC190B53EC182B51EC100B03F0DCFD93
:1036400053EC192B03F080FACDE906012FE068480E
:10365000A0421FDD02249FED689B9DED060B53ECFD
:10366000192B51EC100B03F0F1FB53EC182B03F06A
:10367000C3F99DED060B41EC180B53EC192B51ECE3
:10368000100B03F0B9FD53EC182B03F05DFACDE9F4
:1036900006010CE09DED060B032453EC102B9FED6F
:1036A000580B51EC100B03F04FFACDE906019DEDDC
:1036B000060B53EC102B51EC100B03F0C7FB41EC45
:1036C000180B53EC182B03F0C1FB41EC190B4E48BF
:1036D0000621B0EE490AF0EE690A784400F094F948
:1036E00053EC182B51EC100B03F0B0FB41EC180B12
:1036F0004648B0EE490AF0EE690A0521784400F028
:1037000083F953EC192B51EC100B03F09FFB41ECA8
:10371000100B51EC180B53EC102B002C0EDA03F0AD
:103720006BF99DED061B53EC112B03F08FFB9DED08
:10373000061B53EC112B03F087FC35E003F05CF91A
:103740009DED061B53EC112B03F080FB41EC100B9D
:103750002F48784400EBC40090ED001B51EC100B97
:1037600053EC112B03F048FD9DED061B53EC112B80
:1037700003F042FD41EC100B2648784400EBC400F6
:1037800090ED001B51EC100B53EC112B03F05CFC83
:1037900041EC100B002DA2BFBDEC068B02B070BD3A
:1037A00051EC100B03F0EAF841EC100B01E70000BC
:1037B000000010440000F07F182D4454FB21F93F15
:1037C000182D4454FB21F9BF0000DC3F0000203ECF
:1037D0000000F33F00000000000000000000F03F88
:1037E0000000E63F00000000000000000000004074
:1037F0000080034000000000000000000000F83FCF
:10380000000000000000F0BF0A590000C05800008E
:103810004A5800000258000070B56B4E2DED040BA5
:103820002DED028B82B0DDF81CC0DDE905235C4282
:103830002CF000411C4341EAD474049D22F0004066
:10384000B44205D86C422C4340EAD474B4420BD93C
:103850009DED061B9DED040B02B0BDEC028B04B088
:10386000BDE8704000F056B9ACF14054A4F17F645B
:103870001C430BD0022404EAAC7444EAD27405431E
:103880009FED538B9FED542B07D015E09DED040B5E
:1038900051EC100B00F0D2F942E0002C11BF012CCA
:1038A0009DED040B02B0BDEC028B04BF04B070BDF3
:1038B000022C38D0032C3BD00B439FED491B9FEDCE
:1038C0004A0B0AD0B14218D1B04209D121F080414F
:1038D00020F08040079105900FE0002A15DA10E0F3
:1038E000434B7B44002C08BF93ED000B0DD0012C03
:1038F00010D0022C17D0032C1AD0B0421DD1002AB0
:1039000003DAB0EE410AF0EE610A02B0BDEC028BC0
:1039100004B070BD93ED000B51EC100B03F02EF8CA
:1039200041EC100BF1E7B0EE480AF0EE680AECE764
:10393000B0EE420AF0EE620AE7E7401A00153C28B2
:10394000C8BF8DED000B19DCBCF1000FBEBF10F13C
:103950003C0F9FED290B8DED000B0FDB9DED060B52
:1039600053EC102B9DED040B51EC100B03F0ECF815
:1039700001F00EF800F062F9CDE90001002C08BF5B
:103980009DED000BC1D0012C10D0022C9FED1C0B23
:1039900053EC102B9DED000B51EC100B0DD003F0F0
:1039A0002BFC53EC182B03F027FCB9E7019880F0AF
:1039B000004001909DED000BA7E703F01DFC53ECC8
:1039C000182B03F041FBABE70000F07F0000000084
:1039D000182D4454FB210940182D4454FB2109C0E3
:1039E000182D4454FB21F9BF182D4454FB21F93FF5
:1039F000325700000000000000000000000000003E
:103A0000075C143326A6A13C70B504462DED028B4D
:103A10004D1E00EBC500B0EE408AF0EE608A90EDDE
:103A2000000B35F0060017D053EC182B51EC100B9F
:103A300003F00CFA41EC100B6D1E04EBC50090ED89
:103A4000001B51EC100B53EC112B02F0D5FF41EC95
:103A5000100B35F00600E7D1022D36D0042D1CD016
:103A6000062D1CBFBDEC028B70BD53EC182B51EC26
:103A7000100B03F0EBF994ED0A1B53EC112B02F041
:103A8000BBFF53EC182B03F0E1F994ED081B53EC4A
:103A9000112B02F0B1FF41EC100B53EC182B51EC41
:103AA000100B03F0D3F994ED061B53EC112B02F02D
:103AB000A3FF53EC182B03F0C9F994ED040B53EC5E
:103AC000102B02F099FF41EC100B53EC182B51EC2A
:103AD000100B03F0BBF994ED021B53EC112B02F019
:103AE0008BFF53EC182B03F0B1F994ED001B53EC52
:103AF000112B02F081FFBDEC028B41EC100B70BD6D
:103B000010B553EC102B51EC100B02F075FF41EC8B
:103B1000100B10BD10B553EC112B51EC100B02F033
:103B20006BFF41EC100B10BD9FED050B10B553EC76
:103B3000102B51EC100B03F007F841EC100B10BDEB
:103B400000000000000000009FED050B10B553ECD5
:103B5000102B51EC100B03F079F941EC100B10BD58
:103B6000000000000000001030380A2801D20120B7
:103B700070470020704700BF70470000F0B52DED82
:103B8000028B83B006460F460025684601F034F8E4
:103B9000002447E056F8241057F82420881A0028FB
:103BA00001DB014600E0414200EE101AB8EEC00A07
:103BB000DFED200A80EE208A684600EB840090ED5D
:103BC000000AB5EEC00AF1EE10FA18D0684600EB14
:103BD0008400D0ED000A88EE200AF7EE000A70EEAD
:103BE000608AB0EEE80A1448D0ED090AB4EEE00AA3
:103BF000F1EE10FA15DD0120A040054311E00E485A
:103C000090ED070AB4EEC80AF1EE10FA06DC90ED6A
:103C1000080AB4EEC80AF1EE10FA02D20120A04060
:103C20000543641C032CB5DB284603B0BDEC028BB6
:103C3000F0BD0000000080470083000810B541EC93
:103C4000100BFFF77DFC51EC100B10BD2DE9F0417E
:103C50000446E07800F0C006E07800F03F056078A8
:103C600000F0010098B1EF102846E91705EB5171FB
:103C7000C910A5EBC101491C01F0FF080B48006801
:103C800020B10A48414602683846904700BF607834
:103C900000F0080030B10548406818B1B011034A7F
:103CA000516888470020BDE8F08100006C040020C6
:103CB00010B504466FF00400FFF72BF8E11704EB92
:103CC0005171C1F3C701074A11701046007800EB2B
:103CD0004001C1EBC0104FF6FF7101EAC00002497C
:103CE000088010BD4C0000204E00002070B5044636
:103CF0004FF4077094FBF0F0C6B24FF4077094FBDA
:103D0000F0F100FB114085B205E04FF4077000F0C0
:103D10002FF8701EC6B2002EF7D115B1284600F05C
:103D200027F870BD0146114A12784A434FF0E0234C
:103D30005A6100229A611A46126942F001021A6120
:103D400000BF4FF0E022106900F001021AB100F448
:103D50008032002AF5D04FF0E022126922F00102F1
:103D60004FF0E0231A6100229A6170474C00002056
:103D70000146114A12884A434FF0E0235A6100225B
:103D80009A611A46126942F001021A6100BF4FF0AF
:103D9000E022106900F001021AB100F48032002A1A
:103DA000F5D04FF0E022126922F001024FF0E0233B
:103DB0001A6100229A6170474E00002038B504460F
:103DC00064B120208DF8000028208DF801003020FB
:103DD0008DF8020038208DF8030004E0A3220421AE
:103DE0006846FCF7C5FB6A46042140F69E2002F0B7
:103DF00025FC02F00FF838BD3EB5044602208DF8D0
:103E00000000CA208DF80100E3208DF8020009208F
:103E10008DF803006A460421682002F00FFCA320FD
:103E20008DF8000004F0400048B1C0208DF801007A
:103E3000C8208DF80200C2208DF8030006E0A32000
:103E40008DF801008DF802008DF8030004F4C070B5
:103E500048B1C4208DF80400CC208DF80500C620A0
:103E60008DF8060006E0A3208DF804008DF805000B
:103E70008DF80600A3208DF807008DF808008DF856
:103E800009006A460A2140F6A72002F0D7FB04F099
:103E9000030018B120208DF8000002E0D8208DF832
:103EA00000006A46012140F6B62002F0C7FB04F08C
:103EB000200018B1012000F0ADF802E0002000F071
:103EC000A9F804F4C07008B304F4807060B1B220A3
:103ED0008DF800008B208DF80100B6208DF80200CF
:103EE0009B208DF803000BE0B0208DF800008020AF
:103EF0008DF80100B4208DF8020090208DF80300A9
:103F00006A46042140F6A22002F098FB04F001006A
:103F100020B3F8208DF800006A4601214FF40B60B1
:103F200002F08CFBFA21072000F02CFC072000F0A7
:103F3000F3FB012000F013FC642000F003FD4FF4BC
:103F4000FA7000F012FDC821304800F0A3FB2820D1
:103F500000F0BCFB0A2000F0CCFB08E0D8208DF874
:103F600000006A4601214FF40B6002F067FB04F089
:103F7000020018B1D9208DF8000002E0D8208DF899
:103F800000006A46012140F23D7002F057FB04F048
:103F9000040018B1012000F069F802E0002000F0F0
:103FA00065F804F0100018B10120FFF707FF02E0E8
:103FB0000020FFF703FF44F008001549488101F095
:103FC00029FF00201249887304F0400018B1084608
:103FD000807B801D887304F4C07020B10C48807B06
:103FE000801D0B49887304F0140020B10848807BC1
:103FF00010300749887304F0030020B10448807B27
:10400000001D0349887300203EBD000009E3CA0279
:104010006C0400203EB504466CB10EA1D1E900202D
:104020008968CDE9002002916A4609214FF4976022
:1040300002F004FB3EBD0AA2D2E900109268CDE96D
:10404000010200916A4609214FF4976002F0F6FAE6
:10405000F0E70000B8AAB38DB4980D355D000000FC
:10406000B8AAAAAAB088C3C5C700000038B50446DC
:1040700064B1C0208DF80000C2208DF80100C4207A
:104080008DF80200C6208DF8030004E08B22042185
:104090006846FCF76DFA6A46042140F6982002F063
:1040A000CDFA01F0B7FE38BD10B5C8234FF48062D9
:1040B000024940F6F63001F041FD10BD28830008AA
:1040C0002DE9F04F8DB00746884615469946DDE943
:1040D000166B0024002030806B49887B5A4605A966
:1040E00001F0F8FD18B1601E0DB0BDE8F08F664814
:1040F000807A00F01400002867D09DF814000006B4
:104100009DF8151040EA01409DF8161040EA012084
:104110009DF81710084328609DF8180000069DF8C8
:10412000191040EA01409DF81A1040EA01209DF85C
:104130001B10084368609DF81C0000069DF81D10C8
:1041400040EA01409DF81E1040EA01209DF81F1032
:104150000843A8609DF8200000069DF8211040EA61
:1041600001409DF8221040EA01209DF823100843E9
:10417000E86004F11000C4B2286800140190686877
:1041800000140290A86800140390E86800140490DA
:1041900001984043029901FB0100039901FB0100D2
:1041A000049901FB010ABAF1706F02DBBAF1885F72
:1041B00005DD01F02FFE00203080401E94E7B6F9A7
:1041C000000040F48070308000BF2F48807A00F0FB
:1041D000400020B305A9601C085C095D40EA01208D
:1041E00000B2A8F8000005A9E01C095C05AAA01C03
:1041F000105C41EA002000B2A8F8020005A9601D89
:10420000095C201D105C41EA002000B2A8F80400FF
:10421000A01DC4B2B6F9000040F0080030801A4872
:10422000408900F4C07008B305A9601C085C095DF2
:1042300040EA012000B2388005A9E01C095C05AA0B
:10424000A01C105C41EA002000B2788005A9601D26
:10425000095C201D105C41EA002000B2B880A01D5E
:10426000C4B2B6F9000040F0700030800648807A91
:1042700000F0030018B105A90819FFF7E7FC48464C
:1042800001F0EEF800202FE76C04002070B588B034
:10429000064601A801F09EFABDF804000021C903FA
:1042A00041EA5045C4034448007A00F0030056F840
:1042B000200005904048007A00F0040010B10598F5
:1042C000404205903C48007AC0F3C10056F82000F7
:1042D00006903948007A00F0200010B1069840425C
:1042E00006903548007AC0F3811056F820000790F8
:1042F0003148008900F4807010B10798404207905F
:104300000598C117A0FB042301FB043100FB051035
:10431000810041EA927005900698C117A0FB042322
:1043200001FB043100FB0510810041EA9270069008
:104330000798C117A0FB042301FB043100FB051003
:10434000810041EA927007900598000E8DF80800F0
:104350000598000C8DF809000598000A8DF80A00F0
:104360000598C0B28DF80B000698000E8DF80C0071
:104370000698000C8DF80D000698000A8DF80E00C6
:104380000698C0B28DF80F000798000E8DF8100047
:104390000798000C8DF811000798000A8DF812009C
:1043A0000798C0B28DF8130002AA0C214FF42570B3
:1043B00002F044F908B070BD6C04002030B585B03F
:1043C000044616A207CA02AB07C3C82C03DD4FF090
:1043D000FF3005B030BDC82090FBF4F0401E85B220
:1043E000280A8DF80000E8B28DF801006A46022123
:1043F00040F2162002F022F910B14FF0FF30E8E74A
:1044000002AA0C2140F6C12002F018F910B14FF0B9
:10441000FF30DEE7044884810020DAE7FEF2ABC417
:10442000AAF1DFDFBBAFDFDF6C0400201FB504465D
:104430004848007A00F0030054F8200001904548F5
:10444000007A00F0040010B1019840420190414808
:10445000007AC0F3C10054F8200002903D48007A71
:1044600000F0200010B10298404202903948007AD2
:10447000C0F3811054F8200003903648008900F4FE
:10448000807010B10398404203903349019880FB3B
:104490000101800F40EA810001902F49029880FBC2
:1044A0000110820042EA917002902B49039880FB30
:1044B0000110820042EA917003900198000E8DF87D
:1044C00000000198000C8DF801000198000A8DF899
:1044D00002000198C0B28DF803006A4604214FF42F
:1044E000747002F0ABF818B14FF0FF3004B010BD9B
:1044F0000298000E8DF800000298000C8DF8010063
:104500000298000A8DF802000298C0B28DF80300EC
:104510006A4604214FF4757002F090F810B14FF024
:10452000FF30E3E70398000E8DF800000398000CBD
:104530008DF801000398000A8DF802000398C0B2BC
:104540008DF803006A4604214FF4767002F076F885
:10455000CCE700006C04002009E3CA0210B586B065
:10456000044647A00068039046A00068029046A059
:104570000068019045A00068009004F0030003A9C2
:10458000085C8DF8140003A8C4F3C101405C8DF8E9
:10459000150003A8C4F38111405C8DF8160004F0E7
:1045A000030002A9085C8DF8100002A8C4F3C10141
:1045B000405C8DF8110002A8C4F38111405C8DF8B5
:1045C000120005AA032140F2264002F037F818B184
:1045D0004FF0FF3006B010BD04AA032140F22A407C
:1045E00002F02CF810B14FF0FF30F3E7019805907E
:1045F0000098049004F0040058B19DF8140040F0B5
:1046000001008DF814009DF8100040F001008DF8B5
:10461000100004F0200058B19DF8150040F0010092
:104620008DF815009DF8110040F001008DF8110083
:1046300004F4807058B19DF8160040F001008DF828
:1046400016009DF8120040F001008DF8120005AA36
:1046500003214FF4886001F0F1FF10B14FF0FF30FB
:10466000B8E704AA032140F2314001F0E7FF10B19E
:104670004FF0FF30AEE7064804810020AAE70000B3
:104680004CCD6C000CC92C003656760026466600D0
:104690006C040020F8B505460E464FF47A7095FB81
:1046A000F0F000FB06F4200E8DF80000200C8DF8D1
:1046B0000100200A8DF80200E0B28DF803006A467E
:1046C00004214FF4AE7001F0B9FFF8BD38B50446CF
:1046D000052094FBF0F084B220128DF80000E0B2C7
:1046E0008DF801006A4602214FF4AD7001F0A6FF7B
:1046F00038BD38B50446052094FBF0F084B2201292
:104700008DF80000E0B28DF801006A4602214FF4F6
:10471000AC7001F093FF38BD38B50446002000901E
:1047200004F0010020B19DF8000040F0300000903E
:1047300004F0020020B19DF8000040F00C00009051
:1047400004F0040020B19DF8000040F00300009048
:104750006A4601214FF4A47001F070FF38BD38B5EE
:104760000446012C01DA012402E0042C00DD0424BB
:10477000601EC0B200906A46012140F24F1001F065
:104780005DFF38BDF0B52DED028B83B006460F46B8
:1047900006F0070010B1B7F5C86F05DD4FF0FF3028
:1047A00003B0BDEC028BF0BD00EE107AB8EE400A0B
:1047B000DFED5B0A80EE208A01A800F0E5FF9DF89E
:1047C0000400022806D0042817D0082828D0102872
:1047D0004CD138E09FED530A28EE000ABCEEC00A27
:1047E00010EE100A84B29FED500A28EE000ABCEECB
:1047F000C00A10EE100A85B23BE09FED4C0A28EE8D
:10480000000ABCEEC00A10EE100A84B29FED480AFE
:1048100028EE000ABCEEC00A10EE100A85B228E0AD
:104820009FED440A28EE000ABCEEC00A10EE100A02
:1048300084B29FED410A28EE000ABCEEC00A10EED9
:10484000100A85B215E09FED3D0A28EE000ABCEE85
:10485000C00A10EE100A84B29FED390A28EE000A51
:10486000BCEEC00A10EE100A85B202E04FF0FF3035
:1048700096E700BF20128DF80800E0B28DF809001D
:1048800028128DF80A00E8B28DF80B0006F001003E
:10489000A0B102AA02214FF4EA7001F0CFFE10B1DC
:1048A0004FF0FF307CE70DF10A0202214FF49270C5
:1048B00001F0C4FE10B14FF0FF3071E706F00200C6
:1048C000A0B102AA02214FF4EC7001F0B7FE10B1C2
:1048D0004FF0FF3064E70DF10A0202214FF49470AB
:1048E00001F0ACFE10B14FF0FF3059E706F00400C4
:1048F000A0B102AA02214FF4EE7001F09FFE10B1A8
:104900004FF0FF304CE70DF10A0202214FF4967090
:1049100001F094FE10B14FF0FF3041E700203FE777
:10492000000048430000804600004046000000466A
:104930000000C045000080450000404500000045E3
:104940000000C04438B50446052094FBF0F085B261
:1049500028128DF80000E8B28DF801006A460221A5
:104960004FF4EF7001F06AFE38BD38B504460520FB
:1049700094FBF0F085B228128DF80000E8B28DF8B3
:1049800001006A4602214FF4ED7001F057FE38BD78
:1049900082B0CDE9000121F0004001909DED000BB7
:1049A00002B051EC100B70472DE9F0432DED108B48
:1049B00085B007460C461646002523E007EB850028
:1049C000D0ED000A9FED820AB2EE041A00EE810AD1
:1049D000BDEEC00A10EE100A01A941F8250001A899
:1049E00050F82500002802DA002041F8250001A82F
:1049F00050F82500B0F5E16F03DDB42001A941F8BE
:104A000025006D1C032DD9DB97ED030AF2EE040A95
:104A100020EE200ABDEEC00A8DED040A00251CE040
:104A2000A80000F1010813E001A850F825000A21B0
:104A300090FBF1F201FB120904F8089001A850F86C
:104A4000250090FBF1F001A941F8250008F10108CB
:104A5000A800001D4045E7DA6D1C042DE0DB21793C
:104A6000642211FB02F002F0C7F941EC190BE17866
:104A700001EB8101480002F0BFF941EC1B0BA0786B
:104A800002F0D1F941EC1D0B607802F0CCF99FEDFA
:104A9000510B53EC102B02F0D9F953EC1D2B01F004
:104AA000ABFF53EC1B2B01F0A7FF53EC192B01F0CC
:104AB000A3FF01F06FFF3060217A642211FB02F046
:104AC00002F09AF941EC190BE17901EB8101480000
:104AD00002F092F941EC1B0BA07902F0A4F941EC31
:104AE0001D0B607902F09FF99FED3A0B53EC102BF0
:104AF00002F0ACF953EC1D2B01F07EFF53EC1B2BA5
:104B000001F07AFF53EC192B01F076FF01F042FF20
:104B10007060217B642211FB02F002F06DF941EC20
:104B2000190BE17A01EB8101480002F065F941ECD3
:104B30001B0BA07A02F077F941EC1D0B607A02F0B2
:104B400072F99FED240B53EC102B02F07FF953EC1C
:104B50001D2B01F051FF53EC1B2B01F04DFF53ECCB
:104B6000192B01F049FF01F015FFB060217C642290
:104B700011FB02F002F040F941EC190BE17B01EB73
:104B80008101480002F038F941EC1B0BA07B02F0D8
:104B90004AF941EC1D0B607B02F045F99FED0D0BCE
:104BA00053EC102B02F052F953EC1D2B01F024FFB3
:104BB00053EC1B2B01F020FF53EC192B01F01CFFD1
:104BC00001F0E8FEF06005B0BDEC108BBDE8F083AD
:104BD000000061449A9999999999B93F00BF054A93
:104BE000128802F04002002AF9D0C2B2014B9A802A
:104BF00070470000001001407CB505462E49496809
:104C0000087801AB04220D21FDF774FA08B10720E2
:104C10007CBD9DF80700C0F301109DF8041001F061
:104C2000E00140EAE1008DF800009DF80700C0F3C4
:104C300081009DF8051001F0E00140EAE1008DF8E7
:104C400001009DF8070000F003009DF8061001F038
:104C5000E00140EAE1008DF80200002427E01DF8A1
:104C6000040030B99FED150A05EB840080ED000AC1
:104C70001BE09FED130A05EB840080ED000A0BE0BA
:104C800005EB840090ED000ADFED0E0A20EE200A0D
:104C900005EB840080ED000A1DF80400401EC0B240
:104CA0000DF804000028EBD100BF601CC4B2032C37
:104CB000D5DB0020ACE700000C0000200000000065
:104CC0007B14AE3E1D5A843F2DE9F04F87B0054658
:104CD0000C46914601208DF8100000208DF811003F
:104CE000FE4A1268917CFD4A5268107804AB022299
:104CF000FDF7A6FA20B14FF0FF3007B0BDE8F08F06
:104D0000C820FEF7F3FF00208DF81000F34A126868
:104D1000D17BF24A5268107804AB0122FDF790FA79
:104D200010B14FF0FF30E8E7EC4A12685179EB4AD6
:104D30005268107804AB0122FDF782FA10B14FF0EF
:104D4000FF30DAE7E54A1268917CE44A526810784D
:104D500004AB0122FDF774FA10B14FF0FF30CCE73D
:104D6000DE4A1268D17DDD4A5268107804AB012218
:104D7000FDF766FA10B14FF0FF30BEE7D74A126870
:104D80001179D64A5268107804AB0122FDF758FA1F
:104D900010B14FF0FF30B0E70C208DF81000CF4A73
:104DA00012681179CD4A5268107804AB0122FDF7E0
:104DB00047FA10B14FF0FF309FE70F20FEF796FF44
:104DC000C648806A407A8DF81000C44A126891780B
:104DD000C24A5268107804AB0122FDF731FA10B1D3
:104DE0004FF0FF3089E7BD48806A007A8DF81000E7
:104DF000BA4A12685178B94A5268107804AB012255
:104E0000FDF71EFA10B14FF0FF3076E7B9F1000F51
:104E100007D0B248806A807A40F0E0008DF8100038
:104E200004E0AE48806A807A8DF81000AB4A1268C0
:104E30009179AA4A5268107804AB0122FDF700FA72
:104E400010B14FF0FF3058E7B9F1000F07D0A34879
:104E5000806AC07A40F0E0008DF8100003E0A048BE
:104E6000C07A8DF810009D4A1268D1799B4A526829
:104E7000107804AB0122FDF7E3F910B14FF0FF30D9
:104E80003BE7B9F1000F02D0C820FEF72FFF40200A
:104E90008DF81000914A12681179904A5268107882
:104EA00004AB0122FDF7CCF910B14FF0FF3024E73D
:104EB00078208DF81000894A12685179874A526823
:104EC000107804AB0122FDF7BBF910B14FF0FF30B1
:104ED00013E783498889FEF709FF00208DF8100049
:104EE0007E4A126851797D4A5268107804AB0122DB
:104EF000FDF7A6F910B14FF0FF30FEE6774A1268D1
:104F0000917A764A5268107804AB0222FDF7F2F8E3
:104F100010B14FF0FF30F0E69DF811009DF8101031
:104F200040EA012B0C209BFBF0F0C6B20020A860E9
:104F300068602860A06060602060824665E0674A23
:104F40001268D17A654A5268107804AB0C22FDF7DA
:104F5000D1F810B14FF0FF30CFE69DF811009DF869
:104F6000101040EA012000B2ADF808009DF81300CF
:104F70009DF8121040EA012000B2ADF80A009DF839
:104F800015009DF8141040EA012000B2ADF80C00A5
:104F9000BDF90810206808442060BDF90A10606857
:104FA00008446060BDF90C10A0680844A0609DF83A
:104FB00017009DF8161040EA012000B2ADF800007D
:104FC0009DF819009DF8181040EA012000B2ADF8D4
:104FD00002009DF81B009DF81A1040EA012000B263
:104FE000ADF80400BDF90010286808442860BDF938
:104FF0000210686808446860BDF90410A868084495
:10500000A8600AF1010000F0FF0AB24597DB3448BE
:10501000D0F800C02868C117090441EA104107040C
:10502000624600233846FBF730F932460023CDE9CB
:105030000201FBF72AF928602948D0F800C0686807
:10504000C117090441EA10410704624600233846AB
:10505000FBF71BF932460023CDE90201FBF715F9F6
:1050600068601F48D0F800C0A868C117090441EA69
:1050700010410704624600233846FBF706F9324622
:105080000023CDE90201FBF700F9A8601448D0F82D
:1050900004C02168C817000440EA11480F046246A2
:1050A000002338464146FBF7F0F832460023CDE9AD
:1050B0000201FBF7EAF820600948D0F804C06068F4
:1050C000C117090441EA104107046246002338462B
:1050D000FBF7DBF83246002304E000000C00002060
:1050E00000830008CDE90201FBF7CFF860601148AA
:1050F000D0F804C0A068C117090441EA10410704B0
:10510000624600233846FBF7C0F832460023CDE95B
:105110000201FBF7BAF8A060A068002804DDA068CF
:10512000A0F58030A06003E0A06800F58030A060AA
:105130000020E2E500830008F0B52DED048B81B07E
:1051400006460F4600253E49496808786B4603220B
:105150000D21FCF7CFFF20B1072001B0BDEC048B7F
:10516000F0BD9DF8000000F01F008DF800009DF8D4
:10517000010000F01F008DF801009DF8020000F012
:105180001F008DF80200002455E056F8241057F84F
:105190002420881A002801DB014600E0414200EE8D
:1051A000101AB8EEC00ADFED270A80EE208A1DF83B
:1051B000040068B3244890ED000AB8EE400ADFED21
:1051C000230A80EE801AF0EE418A05E09FED200A66
:1051D00028EE800AF0EE408A1DF80400401EC0B29E
:1051E0000DF804000028F1D188EE280AF7EE000A35
:1051F00030EE609AB0EEC90A1348D0ED060AB4EE5C
:10520000E00AF1EE10FA15DD0120A040054311E09F
:105210000D4890ED040AB4EEC80AF1EE10FA06DC6F
:1052200090ED050AB4EEC80AF1EE10FA02D20120A0
:10523000A0400543641C032CA7DB28468DE7000033
:105240000C000020000080470083000800B04C459F
:1052500054E3853F10B50446204600F00FF803469E
:10526000E01C00F00BF843EAC00083B2A01D00F080
:1052700005F843EA801083B2184610BD014691F943
:105280000020002A01DD00201EE091F90020002A04
:1052900001DA042018E091F90120002A01DD012043
:1052A00012E091F90120002A01DA05200CE091F9C1
:1052B0000220002A01DD022006E091F90220002AE6
:1052C00001DA062000E00720704700002DED048B76
:1052D00092B0FCF7E8FFA820FEF7EAFCFCF7ECFD33
:1052E000FDF7DAF97F20FDF741FB4EA300221146BE
:1052F0001046FDF751F9FCF7A3FE4C4801F00CFAFB
:10530000FDF7E8FDFCF7A0FA08E000F0EFF905462C
:105310002B46002214210A20FDF76EF900F0E6F971
:105320000028F2D142A300220A211046FDF734F9E9
:1053300041A3002214211046FDF72EF940A30022BC
:105340001E211046FDF728F93FA300222821104610
:10535000FDF722F965E001210020FCF79FFB0446E0
:1053600007AA08A909A800F0B5F858B9FCF726FE65
:1053700004AA05A906A8FCF7D1FD01AA02A903A861
:10538000FCF7F4FD9DED090A8DED0E0A9DED080A6E
:105390008DED0F0A9DED070A8DED100A204601F0F4
:1053A00042FD41EC190B9FED2A0B53EC102B01F041
:1053B0004DFD41EC180B01F0EDFA11900AAA2649B7
:1053C0000EA8FFF7F1FADDED0A0AB0EE600A00223E
:1053D0000A212820FDF732F9DDED0B0AB0EE600A54
:1053E000002214212820FDF729F9DDED0C0AB0EE8A
:1053F000600A00221E212820FDF720F9DDED0D0AAC
:10540000B0EE600A002228210846FDF717F913487C
:10541000007830B11121104801F09CF900200F49AB
:10542000087098E75458446174613A000000002005
:105430006C696E6B313A00004C696E6B323A000059
:10544000626173653A000000636C61773A000000A6
:10545000DBF97E6ABC74933F580000204A000020AC
:105460007047000070B50446002624F00104184877
:1054700090F8240008B1002070BD1548807A10B95A
:105480004FF0FF30F8E71248057C807A2040104941
:1054900008740846007CA04202D04FF0FF3600E0BE
:1054A000002614B90A48007D18B1012001F0D0F996
:1054B00002E0002001F0CCF93CB100F0ABFC20B1DF
:1054C000034805744FF0FF30D6E73046D4E70000BC
:1054D0000C00002070B52DED0C8B8EB004460D46EF
:1054E0001646B7EE000AF0EE409A9FED7C0AB0EE49
:1054F000408A9FED7A0AF0EE408A9FED780AB0EE7E
:10550000409A07A808A90DAB03AACDE9001009A984
:105510000BA8FEF7D5FD20B101200EB0BDEC0C8B21
:1055200070BDBDF8200000F4807000287ED09DED95
:10553000030AB8EEC00ADFED6A0A80EE201AF0EE28
:10554000419A9DED040AB8EEC00ADFED650A80EECF
:10555000201AB0EE418A9DED050AB8EEC00ADFEDD3
:10556000600A80EE201AF0EE418A9DED060AB8EE40
:10557000C00ADFED5B0A80EE201AB0EE419AB8EE69
:10558000000A28EE000A20EE090AF0EE000A69EE91
:10559000A00A00EEA80A10EE101A084601F016FF45
:1055A00041EC1C0BB0EE4C0AF0EE6C0AFDF718FE55
:1055B000B0EE40BAF0EE60BA9FED4A0B53EC102B00
:1055C00051EC1B0B01F042FC41EC1A0B01F0E2F92B
:1055D0002060B8EE000A28EE000A20EE080AF0EE7D
:1055E000000A68EEA00A00EEE80AF7EE000A30EEC4
:1055F000200A10EE101A084601F0E8FE41EC1C0BE0
:10560000B0EE000A28EE800A20EE090AF0EE000A49
:1056100069EEA00A00EE880A10EE101A084601F0A2
:10562000D5FE41EC1D0BB0EE4C1A00E052E0F0EE5E
:105630006C1AB0EE4D0AF0EE6D0AFEF7EDF8B0EE22
:1056400040BAF0EE60BA9FED270B53EC102B51ECF3
:105650001B0B01F0FBFB41EC1A0B01F09BF92860DE
:1056600029EEA90A08EE080A08EEE80A09EE490A36
:1056700010EE101A084601F0A9FE41EC1C0B28EEB2
:10568000280A09EE890AF0EE000A20EE200A10EE40
:10569000101A084601F09AFE41EC1D0BB0EE4C1AB0
:1056A000F0EE6C1AB0EE4D0AF0EE6D0AFEF7B4F8AB
:1056B000B0EE40BAF0EE60BA9FED0A0B53EC102B3F
:1056C00051EC1B0B01F0C2FB41EC1A0B01F062F92B
:1056D000306001E0022020E700201EE7000000000B
:1056E0000000804E6666666666A64C4070B5002473
:1056F000FCF716FA00F02AF9002840D1782000F0D3
:1057000035FFC4B20CB1012070BD7820FFF7AAFEAE
:10571000C4B20CB10220F7E7642000F0D9FEC4B295
:105720000CB10320F0E7FEF7BFFCC4B20CB10420BB
:10573000EAE71448FFF78EFD0546FEF70FFFC4B2F7
:105740000CB10520E0E740F27310FEF755FBC4B240
:105750000CB10620D8E76420FEF730FEC4B20CB1CD
:105760000720D1E701F026F804460CB10820CBE76A
:10577000012000F0A9FDC4B20CB10920C4E700204B
:10578000C2E700003800002001461148407A30B1DD
:10579000012807D0022808D003280CD108E00220F5
:1057A00008700BE00420087008E00820087005E08D
:1057B0001020087002E04FF0FF30704700BF04482F
:1057C000C07C18B108784006000E08700020F4E78D
:1057D0000C00002001461348407A30B1012808D05F
:1057E00002280AD0032810D10BE04FF48040088033
:1057F0000EE041F69C7008800AE04FF4805008806B
:1058000006E04FF40060088002E04FF0FF30704780
:1058100000BF0448C07C10B10888401008800020F8
:10582000F5E700000C00002001460248007C0870EB
:10583000002070470C00002001460F48007A30B16C
:10584000012807D0022809D003280FD10AE0FA2046
:1058500008800EE04FF4FA7008800AE04FF47A7086
:10586000088006E04FF4FA60088002E0002008801B
:1058700000BF00BF002070470C0000200146124806
:10588000007A30B1012809D002280CD0032814D1A5
:105890000EE09FED0E0A81ED000A11E09FED0C0A6B
:1058A00081ED000A0CE09FED0B0A81ED000A07E094
:1058B0009FED090A81ED000A02E04FF0FF307047CA
:1058C00000BF0020FBE700000C00002000000343A5
:1058D000000083423333034233338341014612488D
:1058E000C07A082817D2DFE800F01704070A0D1065
:1058F0001318BC20088013E06220088010E02A20E2
:1059000008800DE0142008800AE00A20088007E0E3
:105910000520088004E000BF00BF0020088000BF11
:1059200000BF0020704700000C0000200146064820
:1059300090F8240010B14FF0FF3070470248C08942
:1059400008800020F9E700000C0000201CB5802032
:105950008DF80000654A1268917C644A526810789C
:105960006B460122FCF76CFC10B14FF0FF301CBD00
:105970006420FEF7BBF900208DF800005B4A126836
:10598000917C5A4A526810786B460122FCF758FC09
:1059900010B14FF0FF30EAE7544A1268917D534A44
:1059A000526810786B460622FCF7A4FB10B14FF04A
:1059B000FF30DCE79DF80500C007400F9DF803109D
:1059C00001F0010140EA41009DF8011001F00101E0
:1059D00040EA010494B1012C03D101214348C17470
:1059E00031E0022C03D100214048C1742BE0214654
:1059F0003FA0FAF76FFC4FF0FF30B8E73B4A126860
:105A0000D1783A4A526810786B460122FCF772FB53
:105A100010B14FF0FF30AAE79DF8000000F00F042E
:105A20002CB93D48FAF756FC4FF0FF309FE7042CA5
:105A300006D13AA0FAF74EFC01212C48C17402E0CD
:105A400000212A48C174FF2128488172FF2027497C
:105A50000872FF2125484172C1724FF6FF71C18162
:105A6000FF21017481740121017380F8221000214B
:105A700080F8231041750175163001604160816026
:105A8000163880F8241080F82510C1844FF4FA608D
:105A900000F062FC10B14FF0FF3068E7022000F028
:105AA0002BFB10B14FF0FF3061E72A2000F0CEFC55
:105AB00010B14FF0FF305AE7322000F009FD10B16D
:105AC0004FF0FF3053E70020FFF7CCFC10B14FF050
:105AD000FF304CE7002000F051FB10B14FF0FF30D9
