:020000040800F2
:10000000680B002041020008F91600085D15000881
:10001000F5160008091300080B280008000000006E
:10002000000000000000000000000000191F000890
:10003000FD130008000000008F1D00084322000887
:100040005B0200085B0200085B0200085B0200081C
:100050005B0200085B0200085B0200085B0200080C
:100060005B0200085B0200085B0200085B020008FC
:100070005B0200085B0200085B0200085B020008EC
:100080005B0200085B0200085B0200085B020008DC
:100090005B0200085B0200085B0200085B020008CC
:1000A0005B0200085B0200085B0200085B020008BC
:1000B0005B0200085B0200085B0200085B020008AC
:1000C0005B0200085B0200085B0200085B0200089C
:1000D0005B020008252700085B0200085B0200089D
:1000E0005B0200085B0200085B0200085B0200087C
:1000F0005B0200085B0200085B0200085B0200086C
:100100005B0200085B0200085B0200085B0200085B
:100110005B0200085B0200085B0200085B0200084B
:100120005B0200085B0200085B0200085B0200083B
:100130005B0200085B0200085B0200085B0200082B
:100140005B0200085B0200085B0200085B0200081B
:100150005B0200085B0200085B0200085B0200080B
:100160005B0200085B0200085B0200085B020008FB
:100170005B0200085B0200085B0200085B020008EB
:100180005B0200085B02000800F002F800F049F88A
:100190000AA090E8000C82448344AAF10107DA45E2
:1001A00001D100F03EF8AFF2090EBAE80F0013F0EB
:1001B000010F18BFFB1A43F00103184784420000E7
:1001C000A4420000103A24BF78C878C1FAD8520778
:1001D00024BF30C830C144BF04680C6070470000C1
:1001E0000023002400250026103A28BF78C1FBD840
:1001F000520728BF30C148BF0B607047662903F023
:10020000C081002070471FB503F0B1F900F046FB34
:1002100004000020002102F04DFEE0601FBD10B57B
:1002200010BD00F03BFC1146FFF7EDFF02F082FC31
:1002300000F059FC03B4FFF7F2FF03BC02F0F2FB3D
:100240000948804709480047FEE7FEE7FEE7FEE76A
:10025000FEE7FEE7FEE7FEE7FEE7FEE704480549A6
:10026000054A064B70470000452200088901000836
:1002700068050020680B0020680700206807002040
:10028000704700000FB41CB5084B06AA7B446946B2
:100290000090059800F0E9FA04460020694600F055
:1002A000F7FA20461CBC5DF814FB000001060000B4
:1002B00070B5044685690068C10601D5302600E0A6
:1002C0002026C00707D070BDD4E9012130469047F1
:1002D000206A401C20626D1EF6D570BD70B50446C4
:1002E00085690078C00707D170BDD4E901212020BD
:1002F0009047206A401C20626D1EF6D570BD00003C
:100300002DE9F05F894604464FF0000ADFF824B17A
:10031000FB44C0F820A02046E168884700287DD033
:10032000252806D0D4E901219047206A401C20628C
:10033000F1E700255F462046E16888472028064609
:1003400007DB312E05D2B81910F8200C08B105438F
:10035000F1E7A80701D525F00405C4F81CA0002783
:10036000C4F818A02A2E09D0304602F054FB38B346
:1003700004EB8708303EC8F8186019E059F8041BF0
:10038000204604EB87029161E1688847012F064609
:1003900018D1E069002820DA25F020051DE0D8F802
:1003A000180000EB800006EB40003038C8F8180059
:1003B0002046E1688847064602F02DFB0028EED172
:1003C000012F0AD02E2E08D12046E16888477F1CD5
:1003D0000646022F45F02005C4DBA069002803DA99
:1003E000404245F00105A061E80701D025F0100565
:1003F000A6B1A6F14100192802D8203645F40065BF
:100400004A463146204625604D46FFF7F7FE60B16B
:10041000012807D0ED1D25F0070000E007E000F1FE
:10042000080978E705F1040975E730467AE7206A9C
:10043000BDE8F09F844000007047704770477047E8
:1004400070472DE9FF4F0C461E464FF0FF378BB02B
:10045000D2E90001DDF860800A908A46C1F30A55AE
:1004600005B93D46002108464FF00000BAF1000FE3
:1004700000F4400005DA00EB80004FF4400101EA8F
:1004800050004FEA9059B9F1010F00DDB9460A98C2
:1004900050EA4A000ED044F61050A5F2FF3545430D
:1004A0002F14B8F1000F1ED07542291E1EDDC9F1B0
:1004B00000021CE0B8F1010F4FF0000001D0302124
:1004C00003E0F24305E02154401CB042FBDB304620
:1004D0000022002121540B99C1F80880C1E90020B5
:1004E0000FB0BDE8F08FBD1B6D1CDEE74A4600DA99
:1004F000694206A800F05CFA06AB93E8070003AB7C
:1005000083E8070050460A9900F036FB8DE80700A3
:10051000A0F500501F3800900398002D0ADD42F22C
:100520001F014A460844002303A90390684600F0CF
:100530009FFD09E0A0F500504A461F38002303A99B
:100540000390684600F0A9FD8DE807000004000C48
:1005500003D04FF0FF30410800E01046B8F1000F23
:1005600003D00022009215461EE0751E05D400F04F
:1005700099F9303262556D1EF9D5B3460122084310
:1005800002D000227F1C04E02078302801D1002214
:100590007F1E002A099784D01DE0112D07DA00F094
:1005A00081F9303262556D1C50EA0102F5D10843E1
:1005B00002D00098C8B10EE00021681E05E0235C5F
:1005C000625C63542254401E491C8142F7DBAB46F7
:1005D000A81B401E0990002004F80B000B98099AF4
:1005E000C0F80880C0E9002B7AE711264FF0000818
:1005F00057E72DE9F04F88460446D21D22F0070147
:1006000091B0D1E90001CDE90A0102F0ECF902460E
:100610000B98C00F01D02D2007E02068810701D57D
:100620002B2002E0202101EAC000032A099001D01A
:10063000072A05DB03464146204600F079F90BE125
:100640002078800601D5E06900E00620B8F1650F4A
:10065000814606D0B8F1660F18D0B8F1670F70D197
:1006600031E00020B9F1110F009001DB112301E00E
:1006700009F101030AAA01A90CA8FFF7E2FEDDE9CE
:100680000C70002609F10105834647E001204B4626
:1006900000904FF000470AAA01A90CA8FFF7D1FE6D
:1006A000DDE90DB00C995D46002610B909F1010095
:1006B0000D18B9EB050003D4C0F1FF3609F10105AF
:1006C000A5EB09002BE0B9F1010F01DA4FF00109A8
:1006D0000020B9F1110F0090484601DD112300E020
:1006E00003460AAA01A90CA8FFF7ABFEDDE90C70CE
:1006F0004D4600268346207800070AD4AB4500DA31
:100700005D4601A8012D04DD411911F8011C3029B5
:1007100007D04F4502DA17F1040F04DA01208246B0
:100720000FE06D1EEEE7002F02DCED1B3E4403E000
:10073000781CA84200DD7D1CB81B00F1010A4FF0B7
:1007400000472078000703D4AA4501DB4FF0FF3AA9
:100750000021B7F1004F0DF143088DF8431024D06C
:1007600002202B23002F01DA7F422D230A21021EB3
:10077000A0F1010000DC5FB197FBF1FC97FBF1F207
:1007800001FB1C7C17460CF1300C08F801CDEEE79C
:10079000A8F1010003702188090501D5452100E079
:1007A0006521A0F1010800F8011C09980FA9A1EB2F
:1007B0000807FF1D00B10120411901EBEA70A16992
:1007C0003844081A401EA0612078C00602D4204692
:1007D000FFF76EFD099828B1D4E901219047206AFE
:1007E000401C20622078C00622D52046FFF760FD1D
:1007F0001EE0002E04DBB34502DD01A8805D00E0B1
:100800003020D4E901219047206A401C2062761CE8
:10081000AAF101005FEA000A0AD100F03FF8C068BF
:100820000168405CD4E901219047206A401C2062A5
:10083000281EA5F10105DCDC07E0D4E9012118F848
:10084000010B9047206A401C2062381EA7F1010767
:10085000F3DC2046FFF742FD032011B041E6000023
:1008600001694A1C02610878704700B58FB0CDE974
:1008700001310021059105497944CDE90310114664
:100880006846FFF73DFD0FB000BD0000E5FFFFFF2C
:100890000A6802F8010B0A607047000000487047C0
:1008A0002805002030B5B0F10A024FEA900E71F130
:1008B00000034EEA817EB0EB0E0061EB91014FEA3E
:1008C000101E4EEA017E10EB0E0041EB11114FEAB3
:1008D000102E4EEA016E10EB0E0041EB11214FEA93
:1008E000104E4EEA014E10EB0E0041EB1141401844
:1008F00041F100014FEAD00040EA41704FEAD101D6
:1009000010EB80054FEA810444EA907444EB010443
:100910006D1944EB0404521BA3414FF0000348BF80
:100920000A3200D530BD401C41F1000130BD00004D
:100930002DE9F0411F46044603260168072A01F409
:10094000006004DB08B116A505E016A503E008B1B8
:1009500015A500E015A521F010002060A069C01EBB
:10096000A0610FB1401EA0612046FFF7A1FC4FB16E
:10097000D4E9012138469047206A401C2062C01CFF
:10098000206206E0206AFAE7D4E9012115F8010B9C
:100990009047761EF8D22046FFF7A0FCBDE8F08114
:1009A0004E414E006E616E00494E4600696E660013
:1009B0002DE9F047814616468AB0354878440DC87F
:1009C0008DE80D0032487844801C03AC0DC884E8E3
:1009D0000D0041F69B300844372190FBF1F290FB6B
:1009E000F1F5A5F1800501FB12041B3C02D5644220
:1009F000012000E00020DFF898A080460027FA449C
:100A0000AAF1BE0A0EE0E0070AD03246684607EBBC
:100A1000470101230AEB810100F03FFB8DE807004D
:100A200064107F1C002CEED1194F7F44AE3F19E0BB
:100A3000E80715D007EB04100DF1180A90E80E0036
:100A40008AE80E00C068F04201D198190890324639
:100A5000012306A903A800F020FB03AB83E80700ED
:100A60006D10641C002DE3D14FF00103324669463E
:100A7000B8F1000F03A802D000F0FAFA01E000F08C
:100A80000CFBC9E90001C9F808200AB0BDE8F087ED
:100A9000683A000000487047080500207546FFF7D7
:100AA000F9FFAE4605006946534620F0070085462B
:100AB00018B020B5FFF7D2FBBDE820404FF000068C
:100AC0004FF000074FF000084FF0000B21F0070136
:100AD000AC46ACE8C009ACE8C009ACE8C009ACE879
:100AE000C0098D46704710B50446AFF3008020461C
:100AF000BDE81040FFF79EBB4FF0013C50F8042BBF
:100B000051F8043B9A4221D1A2EB0C03934313EA20
:100B1000CC1317D150F8042B51F8043B9A4215D14D
:100B2000A2EB0C03934313EACC130BD150F8042B24
:100B300051F8043B9A4209D1A2EB0C03934313EA08
:100B4000CC13DBD04FF00000704700BFD01A01BAC1
:100B5000B1FA81F101F0180122FA01F0CB40C1F1A4
:100B60002001DBB2C0B2C01A2CFA01F3D11A9143B2
:100B700011EAC311E6D170475FEA400C08BF91F05B
:100B8000000F4FEA8C234FEAC12243EA51514FEA4A
:100B90001C5018BF00F5F0404FEA300018BF41F07C
:100BA00000415FEA6C5C00F02980BCF1FF3F08BFA8
:100BB00040F080407047130C06BF12044FF0100C39
:100BC0004FF0000C130E04BF12020CF1080C130FAF
:100BD00004BF12010CF1040C930F04BF92000CF13E
:100BE000020CD30F04BF52000CF1010C11464FF060
:100BF0000002A0F11F00A0EB0C00704711F0004FA5
:100C000008BF704731F000413FF4D5AF0B0C06BF71
:100C100009044FF0100C4FF0000C0B0E04BF09023A
:100C20000CF1080C0B0F04BF09010CF1040C8B0F25
:100C300004BF89000CF1020CCB0F04BF49000CF17A
:100C4000010CCCF12003A0EB0C0022FA03F302FA12
:100C50000CF241EA030100F10100704720F07F4CE3
:100C600080EA030023F07F47ACEB070303F57C53D6
:100C700000F0004003F1FF032DE980494FEA154BD6
:100C800009B44FEA144325EA0B4E24EA03480FF255
:100C9000042606EB132749083E785FEA320203FB7D
:100CA0000667C7F5000707FB06F64FEA54374FEA19
:100CB000D64606F1020607FB066CCCF1005C4FEA53
:100CC0001C472CEA074C07FB06F40CFB06F504EB6B
:100CD00015464FEA961634BF00204FF000404FEA09
:100CE000D13706FB07FC4FEA1C4C0CFB0BF7D21B61
:100CF00003FB0CF761EB07010CFB0EF7B0EB0740B1
:100D000072EB17420CFB08F734BFA2EB0742B2EBC1
:100D1000074261EB17414FEA0C444FEA910706FB8B
:100D200007FC4FEA1C4C0CFB0BF7B0EBC74072EB17
:100D3000573203FB0CF734BFA2EBC742B2EBC742FA
:100D400061EB57310CFB0EF7B0EBC70072EB57723B
:100D50000CFB08F734BFA2EBC702B2EBC70261EB92
:100D60005771039F4FEA816141EA921104EBCC0471
:100D70004FEAD1374FEA826206FB07FC42EA901243
:100D80004FEA80604FEA1C4C0CFB0BF7D21B03FBB5
:100D90000CF761EB07010CFB0EF7B0EB074072EBB1
:100DA00017420CFB08F734BFA2EB0742B2EB074235
:100DB00061EB17414FEA8C554FEA910704EB9C24F5
:100DC00006FB07FC4FEA1C4C0CFB0BF7B0EBC740D3
:100DD00072EB573203FB0CF734BFA2EBC742B2EB06
:100DE000C74261EB57310CFB0EF7B0EBC70072EB5B
:100DF00057720CFB08F734BFA2EBC702B2EBC70275
:100E000061EB577115EB4C254FEA816141EA921174
:100E10004FEA82624FEAD13742EA901206FB07FCA2
:100E200044F100044FEA80604FEA1C4C0CFB0BF7C6
:100E3000D21B03FB0CF761EB07010CFB0EF7B0EBC9
:100E4000074072EB17420CFB08F734BFA2EB0742D6
:100E5000B2EB074261EB174115EB1C154FEA8131EC
:100E600041EA92414FEA823242EA90424FEA8030B0
:100E70004FEA0C7644F1000448EA03434EEA0B487B
:100E80004FF0000EB2EB080C71EB030724BF624673
:100E900039464EEB0E0E4FF0000B001852414941FF
:100EA0004BEB0B0BB2EB080C71EB03077BF1000B68
:100EB00024BF624639464EEB0E0E4FF0000B001871
:100EC000524149414BEB0B0BB2EB080C71EB0307A2
:100ED0007BF1000B24BF624639464EEB0E0E51EA01
:100EE000020718BF46F0010616EB0E7655F1000218
:100EF00054F1000103D5BDE88901BDE80088BDE8D3
:100F00008901BDE80048B619524141EB0101A3F146
:100F10000103704780807F7E7D7C7B7A797877764D
:100F200076757473727171706F6E6E6D6C6C6B6AC6
:100F30006A69686867666665646463636261616064
:100F4000605F5F5E5E5D5D5C5C5B5B5A5A595958E1
:100F5000585757565655555554545353525252514B
:100F6000515050504F4F4F4E4E4D4D4D4C4C4C4BA1
:100F70004B4B4A4A4A4949494848484747474746E8
:100F80004646454545444444444343434342424224
:100F900042414141002B9C4630D477002BD01CB5F8
:100FA0004FEA370703B44FF010004FF01001BAF1C9
:100FB000000F06D0BCF1000FDCBF40F0080040F08D
:100FC00008014FF000000FBCBDE810400BF1010B11
:100FD000BBF1010F08BF5FEA170722BF12F1010240
:100FE00011F101014FF0004143F1000300F0004016
:100FF00043EA00007047F9D35708D0E746EA0646AF
:1010000013F1400F4FEA16461FDD13F1200FDFBF2B
:1010100016430A46002120335B42BED0C3F12007AD
:1010200046EA064602FA07F74FEA164646EA070678
:10103000C3F1200722FA03F201FA07F721FA03F1BC
:101040004FF0000342EA0702A7E746EA020646EA33
:1010500006464FEA164646EA0106BCBF46EA064681
:10106000360C4FF000034FF000024FF0000194E700
:101070002DE9804C9A46934670B491E8380007C831
:1010800031EA400C48BF34EA430C03D5FFF7E6FDD4
:10109000FFF780FFF0BCBDE8008C2DE9804C9A463C
:1010A000934670B491E8380007C810F0804F08BF2D
:1010B00013F0804F03D100F005F8FFF76BFFF0BC91
:1010C000BDE8008C20F07F4780EA030023F07F4CCE
:1010D00007EB0C03A3F57C5300F00040A3F1FE03E3
:1010E00092F0000F00F0B38095F0000F00F07780D1
:1010F0002DE901494FEA11404FEA144621EA004820
:1011000000FB06FC24EA064708FB06F607FB08F886
:1011100000FB07F718EB06484CEB164C4FEA124B56
:1011200018EB07484FEA15464CEB174022EA0B4EE6
:101130000BFB06FC25EA06470EFB06F607FB0EFE38
:101140000BFB07F71EEB064E4CEB164C4FF0000660
:101150001EEB074E4CEB174B18EB0B0840F1000051
:1011600018EB0E0B58EB000840F100008F1A4FF0FF
:1011700000013CBFC943661B14BFB5EB040C002142
:101180003CBFC943F61B4FEA17444EEA8E0E27EACE
:1011900004454FEA1C4704FB07622CEA074C05FB99
:1011A00007F70CFB05F604FB0CFC16EB074642EBBD
:1011B000174216EB0C4642EB1C421BEB060658EBA3
:1011C0000202414146EA9E0601D5BDE80189B619F1
:1011D000524141EB0101A3F10103BDE801894FEA4E
:1011E00014454FEA114724EA054621EA074C05FB5E
:1011F00007F406FB07F70CFB06F105FB0CFC11EBF3
:10120000074144EB17444FEA124711EB0C4144EB02
:101210001C4422EA074C05FB07F206FB07F70CFB10
:1012200006F605FB0CFC16EB074642EB174216EBE5
:101230000C4642EB1C456A1854F1000148BF704748
:10124000B619524141EB0101A3F10103704795F03A
:10125000000F37D04FEA11424FEA144721EA024605
:1012600024EA074C02FB07F106FB07F70CFB06F428
:1012700002FB0CFC14EB074441EB17414FEA154706
:1012800014EB0C4441EB1C4125EA074C02FB07F52B
:1012900006FB07F70CFB06F602FB0CFC16EB0746F9
:1012A00045EB174516EB0C4645EB1C42121951F164
:1012B000000148BF7047B619524141EB0101A3F14B
:1012C000010370474FEA14454FEA114724EA0546E7
:1012D00021EA074C05FB07F106FB07F70CFB06F2BA
:1012E0004FF0000605FB0CFC12EB074241EB1741E7
:1012F00012EB0C4251EB1C4148BF7047921841EB76
:101300000101A3F10103704700BFFEE700200CE0DC
:10131000002106E00022064B03EBC0135A544A1C7E
:10132000D1B28029F6DB421CD0B20828F0DB70472E
:10133000400000202DE9F04304460D4616461F46A6
:10134000E819C7B23019C6B2A9460FE0A04607E0B7
:101350004946404600F028F808F1010000F0FF0877
:10136000B045F5DB09F1010000F0FF09B945EDDBFF
:10137000BDE8F08310B50024002000F057FE4FF4C4
:101380008051084800F0C2F8072000F029FD04460B
:101390002146072001F0F8FA4FF48051014800F08F
:1013A000B7F810BD0000024070B504460D4629464E
:1013B000204600F083FC0F494878C11700EB5171BB
:1013C000CB100C494878C11700EB5171C910A0EB44
:1013D000C101CEB2084800EBC31006490978405C51
:1013E0000121B1408843044901EBC311014A12783D
:1013F000885470BD060000204000002070470000A7
:1014000010B54FF48051064800F080F8E22000F05B
:1014100055FD4FF48051024800F07AF810BD0000ED
:1014200000000240F0B50A4600210023002400BF5E
:101430003DE0012505FA01F3156805EA03049C4225
:1014400034D105684F000326BE40B54305601579C9
:101450004E00B5400668354305601579012D02D070
:101460001579022D16D185684F000326BE40B5437D
:10147000856055794E00B54086683543856045687E
:1014800001268E40B5434560456896798E40B6B2D8
:1014900035434560C5684F000326BE40B543C5606F
:1014A000D5794E00B540C6683543C560491C102942
:1014B000BFD3F0BDF0B5002300244D07ED0E02FAB6
:1014C00005F3CE1000F1200555F826504E07F70E13
:1014D0000F26BE40B543CF1000F1200646F8275036
:1014E000CE1000F1200555F8265045EA0304CE1031
:1014F00000F1200545F82640F0BD024600201369A2
:101500000B400BB1012000E0002070474183704781
:101510000183704701480078704700000F000020E9
:1015200010B500244FF480710B48FFF7E6FF78B93F
:1015300000F04EFC102808D0202802D0402806D108
:1015400001E0012403E0022401E0032400BF00E0E5
:101550000024204610BD00000008024000BFFEE746
:101560001CB50121084600F013FC4FF40060009008
:1015700001208DF8040000208DF8060003208DF86E
:10158000050001208DF8070069463F48FFF74AFF34
:101590000121084600F0FCFB4FF480500090012030
:1015A0008DF8040000208DF8060003208DF805005A
:1015B00001208DF8070069463348FFF733FF01210A
:1015C000042000F0E5FB4FF40070009001208DF83E
:1015D000040000208DF8060003208DF8050001208E
:1015E0008DF8070069462948FFF71CFF01210420F8
:1015F00000F0CEFB8020009000208DF80400012038
:101600008DF8070003208DF8050069461F48FFF795
:1016100009FF0121084600F0BBFB4FF480700090E9
:1016200001208DF8040000208DF8060003208DF8BD
:10163000050001208DF8070069461348FFF7F2FE08
:101640000121042000F0A4FB4FF4807000900020E2
:101650008DF8040001208DF8070003208DF80500A7
:1016600069460A48FFF7DEFE4FF400610648FFF7BF
:101670004DFF4FF480510448FFF74AFF4FF40071CB
:101680000248FFF743FF1CBD000002400008024073
:101690001CB50121084600F07BFB4FF480700090E0
:1016A00001208DF8040000208DF8060003208DF83D
:1016B000050001208DF8070069460448FFF7B2FED7
:1016C0004FF480710148FFF723FF1CBD000002406A
:1016D00070B504460D4605F1B001C8B200F01EFB1E
:1016E000102101EB141000F019FB04F00F0000F0C2
:1016F00015FB70BD00BFFEE7704708B54FF4C06032
:1017000000F064F919208DF8000000208DF8010028
:1017100001208DF802008DF80300684600F01AF9E8
:101720004FF4C06000F052F91C208DF8000000203A
:101730008DF8010002208DF8020001208DF80300D1
:10174000684600F007F94FF4C06000F03FF91D2033
:101750008DF8000000208DF8010003208DF80200B4
:1017600001208DF80300684600F0F4F84FF4C060E3
:1017700000F02CF91E208DF8000000208DF80100EB
:1017800004208DF8020001208DF80300684600F067
:10179000E1F84FF4C06000F019F932208DF8000034
:1017A00000208DF8010005208DF8020001208DF841
:1017B0000300684600F0CEF84FF4C06000F006F970
:1017C00036208DF8000000208DF8010006208DF8ED
:1017D000020001208DF80300684600F0BBF84FF4CA
:1017E000C06000F0F3F837208DF8000000208DF87D
:1017F000010007208DF8020001208DF803006846E3
:1018000000F0A8F84FF4C06000F0E0F82C208DF84C
:10181000000001208DF8010000208DF80200012059
:101820008DF80300684600F095F84FF4A06000F0D2
:10183000CDF825208DF8000000208DF801008DF8EE
:10184000020001208DF80300684600F083F84FF491
:10185000A06000F0BBF826208DF8000000208DF875
:10186000010001208DF802008DF80300684600F0A9
:1018700071F84FF4A06000F0A9F827208DF800005F
:1018800000208DF8010002208DF8020001208DF863
:101890000300684600F05EF84FF4A06000F096F890
:1018A00034208DF8000000208DF8010003208DF811
:1018B000020001208DF80300684600F04BF84FF459
:1018C000A06000F083F807208DF8000001208DF85B
:1018D000010000208DF8020001208DF80300684609
:1018E00000F038F84FF4A06000F070F806208DF892
:1018F000000001208DF801008DF802008DF8030032
:10190000684600F027F84FF4A06000F05FF8172059
:101910008DF8000001208DF8010002208DF80200F2
:1019200001208DF80300684600F014F84FF4A06021
:1019300000F04CF828208DF8000001208DF80100FF
:1019400003208DF8020001208DF80300684600F0A6
:1019500001F808BD70B5002100230F22C4781CB324
:10196000174C246804F4E064C4F5E064C4F3072170
:10197000C1F10404E3B20A4144789C40E1B28478A6
:10198000144021430C07210E0E4C05786155047854
:1019900004F01F050124AC4005786D11AD0005F180
:1019A000E025C5F8004109E0047804F01F05012492
:1019B000AC40054D0678761145F8264070BD000014
:1019C0000CED00E000E400E080E100E002490143AA
:1019D000024A1160704700000000FA050CED00E0BB
:1019E00010B5FFF793FC00F04BFA10BD2DE9F0475E
:1019F00081468A4615461E465146484600F05EF925
:101A000010480078104908700E484078487025B199
:101A1000304600F0A9FF044603E0304600F0D4FF52
:101A200004464FF0080804EB44004006070E064A3F
:101A30005178107843463A4600F0EAF92046BDE86E
:101A4000F08700000600002008000020F0B52DED12
:101A5000048B83B004460D461646B0EE408A18EE5D
:101A6000100A01F013FD41EC190B53EC192B0CA1DA
:101A70006846FEF707FC074607EB47004006020EE4
:101A8000082329462046FFF755FC6B463246294677
:101A90002046FFF7ABFF03B0BDEC048BF0BD0000A8
:101AA0002530352E3266000010B500F077F84FF47F
:101AB00080413948FFF72CFD0A2000F0D3FF4FF496
:101AC00080413548FFF722FD0A2000F0CBFF4FF49C
:101AD00080413148FFF71CFD0A2000F0C3FFAE2013
:101AE00000F01CF9022000F019F9102000F016F99E
:101AF000402000F013F9812000F010F9CF2000F011
:101B00000DF9A12000F00AF9C82000F007F9A6207D
:101B100000F004F9A82000F001F93F2000F0FEF8E1
:101B2000812000F0FBF8FF2000F0F8F8D32000F04F
:101B3000F5F8002000F0F2F8D52000F0EFF8802052
:101B400000F0ECF8D92000F0E9F8F12000F0E6F818
:101B5000DA2000F0E3F8122000F0E0F8DB2000F0DB
:101B6000DDF8402000F0DAF8202000F0D7F802205D
:101B700000F0D4F88D2000F0D1F8142000F0CEF859
:101B8000A42000F0CBF8A62000F0C8F8AF2000F0A9
:101B9000C5F8FFF725FF10BD000402401CB5012168
:101BA000022000F0F5F80121022000F0F1F80121F7
:101BB000022000F0EDF80121022000F0E9F80121F7
:101BC000042000F0E5F84FF48050009001208DF8DB
:101BD000040000208DF8060003208DF80500012088
:101BE0008DF8070069463348FFF71CFC4FF480511D
:101BF0003048FFF78DFC4FF40050009001208DF825
:101C0000040000208DF8060003208DF80500012057
:101C10008DF8070069462748FFF704FC4FF4005190
:101C20002448FFF775FC4FF48040009001208DF8A8
:101C3000040000208DF8060003208DF80500012027
:101C40008DF8070069461B48FFF7ECFB4FF4804115
:101C50001848FFF75DFC4FF40040009001208DF81C
:101C6000040000208DF8060003208DF805000120F7
:101C70008DF8070069460F48FFF7D4FB4FF4004189
:101C80000C48FFF745FC4020009001208DF804002F
:101C900000208DF8060003208DF8050001208DF846
:101CA000070069460448FFF7BDFB40210248FFF7E3
:101CB0002FFC1CBD0004024000080240402900DB4C
:101CC0000021802800DB0020014A5170107070470D
:101CD0000600002070B50446002518E040210D489C
:101CE000FFF714FC04F0800028B14FF400410A48CB
:101CF000FFF70EFC04E04FF400410748FFF706FC35
:101D000040210448FFF704FC6006040E6D1C082DFA
:101D1000E4D370BD000802400004024010B5044640
:101D20004FF480510848FFF7F1FB4FF4005106488B
:101D3000FFF7ECFB2046FFF7CDFF4FF48051024840
:101D4000FFF7E6FB10BD00000004024010B504469A
:101D50004FF480510848FFF7D9FB4FF40051064873
:101D6000FFF7D6FB2046FFF7B5FF4FF4805102483E
:101D7000FFF7CEFB10BD00000004024010B5044682
:101D80008120FFF7CBFF2046FFF7C8FF10BD70474B
:101D900029B1064A12680243044B1A6004E0034A60
:101DA00012688243014B1A607047000030380240CD
:101DB00029B1064A12680243044B1A6004E0034A40
:101DC00012688243014B1A6070470000403802409D
:101DD00010B5072000F004F800F0700010BD0000FE
:101DE00070B504464FF480510848FFF78FFB20463A
:101DF00000F064F8002000F061F805464FF48051CF
:101E00000248FFF785FB284670BD00000000024035
:101E10002DE9FC5F06460C4691469A462046E1179E
:101E200004EB5171C1F3C70BB04604EB0A01481E25
:101E3000C11700EB5171C1F3C701019106EB090015
:101E4000401EC0B200905D4612E029464046FFF7B2
:101E50003FFC474607E0094901EBC511C85DFFF7A4
:101E600075FF781CC7B200988742F4DD681CC5B2C4
:101E700001988542E9DDBDE8FC9F0000400000209C
:101E800070B500210846FFF723FC002411E000256F
:101E90000BE021462846FFF71BFC074901EBC41164
:101EA000485DFFF753FF681CC5B2802DF1DB601C55
:101EB000C4B2082CEBDB70BD4000002070B50446B6
:101EC000002520E004F0800028B14FF48071104814
:101ED000FFF71EFB04E04FF480710D48FFF716FB7F
:101EE0004FF400710B48FFF713FB6006040E8021CE
:101EF0000848FFF702FB04434FF400710548FFF761
:101F000005FB681CC5B2082DDCDB204670BD000057
:101F100000000240000802407047000010B52DED9F
:101F2000028BB0EE408A9FED0A0AC8EE000A9FEDD0
:101F3000091A9FED090A00EE810ABCEEC00A10EEF4
:101F4000104A2146054800F0A2FBBDEC028B10BDF3
:101F5000000034430000FA440000FA43000400404B
:101F600010B52DED028BB0EE408A9FED0A0AC8EE47
:101F7000000A9FED091A9FED090A00EE810ABCEEE6
:101F8000C00A10EE104A2146054800F082FBBDEC65
:101F9000028B10BD000034430000FA440000FA43F5
:101FA0000004004010B52DED028BB0EE408A9FED8D
:101FB0000A0AC8EE000A9FED091A9FED090A00EE11
:101FC000810ABCEEC00A10EE104A2146054800F016
:101FD00062FBBDEC028B10BD000034430000FA44EC
:101FE0000000FA430004004010B52DED028BB0EE66
:101FF000408A9FED0A0AC8EE000A9FED091A9FED7C
:10200000090A00EE810ABCEEC00A10EE104A214611
:10201000054800F042FBBDEC028B10BD00003443CC
:102020000000FA440000FA430004004010B50446E2
:1020300044B94FF400610848FFF768FA00200749E7
:10204000087007E04FF400610348FFF761FA0120D0
:102050000249087010BD0000000002400F0000207F
:1020600010B504460020FFF7E1FF2146052000F0EF
:102070008BFC10BD70B50446202C01DD202000E053
:10208000204605460020FFF7D1FF2946112000F029
:102090007BFC70BD10B504460020FFF7C7FF44F07D
:1020A0000801062000F070FC10BD2DE9F041044647
:1020B0000E461546052D01DD052000E028460746A1
:1020C000052C01DD052000E02046804608F10A01CC
:1020D000C8B23A46314600F005FCBDE8F08110B5C3
:1020E0000020FFF77DFE044644F001042146002055
:1020F00000F04AFC10BD00000CB5002001900090DB
:102100003448006840F480303249086000BF3148EC
:10211000006800F4003000900198401C0190009885
:1021200018B90198B0F5A04FF1D12A48006800F421
:10213000003010B10120009001E0002000900098D4
:10214000012846D123484030006840F080502149A2
:10215000403108602048006840F440401E49086053
:102160001C48083000681B490831086008460068B0
:1021700040F4004008600846006840F4A050086041
:102180001648091F0860081F006840F08070091F8A
:10219000086000BF0F48006800F000700028F9D008
:1021A00040F205700E4908600A480830006820F0C7
:1021B00003000849083108600846006840F0020042
:1021C000086000BF03480830006800F00C000828D1
:1021D000F8D10CBD003802400070004008544007A0
:1021E000003C024070B504460D46052D01DD05207A
:1021F00000E02846064632462146102000F072FBD9
:1022000070BD10B50020FFF7EBFD044624F001047B
:102210002146002000F0B8FB10BD042808D14FF083
:10222000E021096941F004014FF0E022116107E06B
:102230004FF0E021096921F004014FF0E022116123
:102240007047704710B51548006840F47000134996
:1022500008601348006840F0010011490860002040
:102260000F49083108600E4800680E4908400C49C3
:1022700008600D48091D0860081F006820F48020D0
:10228000091F0860002006490C310860FFF734FF81
:102290004FF0006001498039086010BD88ED00E012
:1022A00000380240FFFFF6FE1030002430B58BB03E
:1022B00004460D4601210220FFF77AFD0121084660
:1022C000FFF766FD01210220FFF762FD02220621D1
:1022D0003A48FFF7EFF8022207213848FFF7EAF8FB
:1022E000022200213648FFF7E5F802220121344896
:1022F000FFF7E0F8C020099002208DF828000320A5
:102300008DF8290000208DF82A0001208DF82B007F
:1023100009A92A48FFF786F80320099002208DF8C2
:10232000280003208DF8290000208DF82A000120C4
:102330008DF82B0009A92248FFF774F8A8B2ADF870
:1023400018000020ADF81A000794ADF8200006A987
:102350001C4800F0A5F96020ADF804000120ADF89C
:1023600006000020ADF8100001A9164800F044F85E
:1023700001A9144800F088F801A9124800F0E4F817
:1023800001A9104800F03AF908210E4800F072F84F
:1023900008210C4800F0CAF808210A4800F024F986
:1023A0000821084800F066F90121064800F00CF801
:1023B0000121044800F014F80BB030BD00000240C9
:1023C000000402400004004021B1028842F0800273
:1023D000028004E002884FF67F731A400280704743
:1023E00021B1028842F00102028004E002884FF627
:1023F000FE731A400280704770B50024002200234B
:10240000058C4FF6FE7635400584028C8388048B5C
:102410004FF68F752C40B51E2C400D882C43751E31
:102420002A408D892A434D882A43104DA84202D064
:102430000F4DA84213D14FF6F7752A40CD892A4394
:102440004FF6FB752A408D882A434FF6FF652B40D7
:102450004FF6FF552B400D8A2B434D8A2B4383802B
:1024600004838D684563028470BD00000000014054
:10247000000401400A460021018B4FF6F773194012
:10248000114301837047000070B50024002200232F
:10249000058C4FF6EF7635400584028C8388048BDB
:1024A00048F6FF752C404FF6FF452C400D884FF63F
:1024B000FF7606EA05252C434FF6DF752A408D8905
:1024C00006EA05152A434D8806EA05152A43154DE7
:1024D000A84202D0144DA8421DD14FF67F752A4064
:1024E000CD894FF6FF7606EA05152A434FF6BF75EC
:1024F0002A408D8806EA05152A434FF6FF352B4002
:102500004FF2FF752B400D8A06EA85052B434D8A55
:1025100006EA85052B43838004838D6885630284E6
:1025200070BD000000000140000401400A46002187
:10253000018B4FF2FF7319404FF6FF7303EA02233A
:10254000194301837047000070B500240022002366
:10255000058C4FF6FF6635400584028C8388848B9A
:102560004FF68F752C404FF6FC752C400D882C4390
:102570004FF6FF552A408D894FF6FF7606EA05256E
:102580002A434D8806EA05252A43154DA84202D064
:10259000144DA8421DD14FF2FF752A40CD894FF648
:1025A000FF7606EA05252A434FF6FF352A408D8837
:1025B00006EA05252A434EF6FF752B404DF6FF75BA
:1025C0002B400D8A06EA05152B434D8A06EA0515B0
:1025D0002B43838084838D68C563028470BD0000B3
:1025E00000000140000401400A460021818B4FF6A3
:1025F000F7731940114381837047000070B50022C2
:1026000000230024058C4EF6FF7635400584038CAC
:102610008488828B48F6FF752A404FF6FF452A4092
:102620000D884FF6FF7606EA05252A434DF6FF751D
:102630002B408D8906EA05352B434D8806EA053582
:102640002B430A4DA84202D0094DA84208D14BF6AF
:10265000FF752C400D8A4FF6FF7606EA85152C4350
:10266000848082838D680564038470BD000001400E
:10267000000401400A460021818B4FF2FF7319408C
:102680004FF6FF7303EA02231943818370474163C6
:10269000704781637047C1637047016470470000F1
:1026A00000220288184B98420ED0184B98420BD04B
:1026B000B0F1804F08D0164B984205D0154B984288
:1026C00002D0154B984204D14FF68F731A404B88B5
:1026D0001A43124B984207D0114B984204D04FF640
:1026E000FF431A400B891A4302804B68C3620B8870
:1026F0000385054B984202D0044B984201D18B7A56
:1027000003860123838270470000014000040140DA
:102710000004004000080040000C00400010004091
:102720000014004010B540F225511D4800F03EF85D
:1027300010B31B4800F064F8C4B21A48008800F4D3
:102740000040C8B91748008800F4804060B10A2CE6
:1027500003D000201349088020E01248008840F48C
:1027600000401049088019E00D2C06D10D48008862
:1027700040F480400B49088010E00A480088C0F30C
:102780000D0009490C5407480088401C0549088081
:1027900008460088C72801DD0020088010BD000021
:1027A00000100140180000204004002070B50246CF
:1027B000002400230025002040F66A16B14200D113
:1027C00000BFC1F3421501F01F03012606FA03F30F
:1027D000012D02D19689334006E0022D02D1168ADE
:1027E000334001E0968A33400C12012606FA04F4C5
:1027F0001688344013B10CB1012000E0002070BDF8
:1028000001468888C0F30800704700BFFEE710B596
:102810000120FFF70BFC10BD30B50146244C637856
:10282000DC1703EB5474E010214C6378DC1703EBE6
:102830005474E410A3EBC404E2B21E4B03EBC013C8
:102840001B4C24781B5D01FA02F42343194C04EB62
:10285000C014174D2D78635592B1164C431C04EBF0
:10286000C313134C24781B5DC2F1080441FA04F42D
:102870002343104D441C05EBC4140D4D2D786355B6
:102880000B4B1B78802B0DDB0023094C2370234658
:102890005B780833637023465B78402B07DB0023AB
:1028A000637004E0024B1B785B1C014C237030BD4D
:1028B000060000204000002030B5054600240BE053
:1028C000A5F1200101EB4101054A02EB4101085D40
:1028D000FFF7A2FF601CC4B2062CF1DB30BD000084
:1028E000863500082DE9F04105460E461746FEF7ED
:1028F00011FE80460020FFF799FB4FF480510D48F0
:10290000FEF704FE45F02000FFF7D8FA002404E0AB
:10291000305DFFF7D3FA601CC4B2BC42F8DB4FF461
:1029200080510448FEF7F4FD4046FFF77FFBBDE809
:10293000F08100000000024030B5054600240DE0A3
:10294000A5F1200101EB4101064A02EB4101095DBD
:10295000C943C8B2FFF760FF601CC4B2062CEFDBAE
:1029600030BD00008635000830B50446002505E07E
:1029700014F8010BFFF7E0FF681CC5B220780028AF
:10298000F6D1284630BD000070B504460D46FEF76E
:10299000C1FD06460020FFF749FB4FF4805109486E
:1029A000FEF7B4FD44F02000FFF788FA2846FFF751
:1029B00085FA4FF480510348FEF7AAFD3046FFF731
:1029C00035FB70BD0000024030B50446002505E02F
:1029D00014F8010BFFF770FF681CC5B220780028BF
:1029E000F6D1284630BD03B401984100009850EA62
:1029F000C12018BF04204A0D18BF40F0010040F26A
:102A0000FF72B2EB515F08BF40F00200012808BF1F
:102A1000052002B0704730380A2801D201207047E3
:102A20000020704700BF704710B504466FF00400E7
:102A3000FFF7F3FBE11704EB5171C1F3C701074A3C
:102A400011701046007800EB4001C1EBC0104FF64A
:102A5000FF7101EAC0000249088010BD100000208B
:102A60001200002070B504464FF4077094FBF0F09C
:102A7000C6B24FF4077094FBF0F100FB114085B231
:102A800005E04FF4077000F02FF8701EC6B2002E5C
:102A9000F7D115B1284600F027F870BD0146114A5C
:102AA00012784A434FF0E0235A6100229A611A4695
:102AB000126942F001021A6100BF4FF0E022106972
:102AC00000F001021AB100F48032002AF5D04FF074
:102AD000E022126922F001024FF0E0231A61002285
:102AE0009A617047100000200146114A12884A433B
:102AF0004FF0E0235A6100229A611A46126942F0AF
:102B000001021A6100BF4FF0E022106900F00102DB
:102B10001AB100F48032002AF5D04FF0E022126999
:102B200022F001024FF0E0231A6100229A617047FF
:102B300012000020FEF7E1FDA820FFF775FFFEF769
:102B4000A7FDFEF7B1FF7F20FFF718F93F4800F01F
:102B5000F3F8FFF7C4FAFFF75AFE532144F61F605B
:102B6000FFF7A4FB3AA3002211461046FEF73EFFF2
:102B700039A300220A211046FEF738FF38A30022AD
:102B800014211046FEF732FF37A300221E21104603
:102B9000FEF72CFF36A3002228211046FEF726FF61
:102BA00053E0FEF7BDFC022807D1FEF7E3FB11213D
:102BB000314800F093F8FFF72AFE30492E4800F024
:102BC000D9F82E48D0ED000AB0EE600A00220A21A2
:102BD0002820FEF73BFF2948D0ED010AB0EE600A3D
:102BE000002214212820FEF731FF2448D0ED020AEC
:102BF000B0EE600A00221E212820FEF727FF1F48A2
:102C0000D0ED030AB0EE600A002228210846FEF744
:102C10001DFF1A48D0ED000AB0EE600AFFF77EF9FA
:102C20001648D0ED010AB0EE600AFFF799F9134893
:102C3000D0ED020AB0EE600AFFF7B4F90F48D0ED0C
:102C4000030AB0EE600AFFF7CFF9AAE70000002000
:102C50005258446174613A006C696E6B313A0000FD
:102C60004C696E6B323A0000626173653A00000095
:102C7000636C61773A0000001C00002030000020E7
:102C800010B5FEF76DFC0020FFF7D0F905211248C2
:102C9000FFF7A8FA052210490020FFF706FA0021E5
:102CA0000120FFF771FE01210220FFF76DFE0021D8
:102CB0000420FFF769FE02210520FFF765FE0F21C2
:102CC0000620FFF761FE14211120FFF75DFE0E21A3
:102CD0000020FFF759FE10BD0A0000202DE9F04149
:102CE00005460E46202E01DD202000E03046074636
:102CF0000020FFF79BF94FF480510E48FEF706FCC9
:102D00006120FFF7DBF8002405E00020FFF7D6F88C
:102D10002855601CC4B2BC42F7DB4FF48051054813
:102D2000FEF7F6FBFEF76CFB1420FFF7B7FEBDE8DD
:102D3000F08100000000024010B50446FFF7A0FF3C
:102D40002E210020FFF720FE05212046FFF74AFA3A
:102D5000052221460020FFF7A8F91120FFF78AF984
:102D60004D20FFF77DF90320FFF794F9FFF749FAAB
:102D700010BD000070B52DED088B90B005460E46D5
:102D8000032415E0601C285C0CA941F82400601D98
:102D9000285C08A941F8240004F10900285C04A972
:102DA00041F8240004F10D00285C4DF82400641E55
:102DB000002CE7DA0C9800F06DF99FED3C0B53EC1A
:102DC000102B00F07BF941EC190B64220F99514351
:102DD0000E9A02EB820201EB42010D9A881800F074
:102DE00059F953EC192B00F0ADF800F079F8306088
:102DF000089800F04FF99FED2D0B53EC102B00F0CD
:102E00005DF941EC190B64220B9951430A9A02EBCC
:102E1000820201EB4201099A881800F03BF953EC59
:102E2000192B00F08FF800F05BF87060049800F048
:102E300031F99FED1E0B53EC102B00F03FF941ECE4
:102E4000190B642207995143069A02EB820201EBA7
:102E50004201059A881800F01DF953EC192B00F077
:102E600071F800F03DF8B060009800F013F99FEDA4
:102E70000F0B53EC102B00F021F941EC190B6422DD
:102E800003995143029A02EB820201EB4201019A3B
:102E9000881800F0FFF853EC192B00F053F800F0FD
:102EA0001FF8F06010B0BDEC088B70BD9A9999992D
:102EB0009999B93F10B500290AD00878002807D0A1
:102EC00005487844FDF718FE002801D0002010BD09
:102ED0000248784410BD00009E15000096150000C1
:102EE00021F00042A2F16052B2F5801F01F00043D0
:102EF00028BFD2F17F6C0BD95FEA001C43EAC20203
:102F000042EB507018BF704728BF20F00100704797
:102F1000B2F5801FBCBF184670474FEA410C1CF544
:102F2000001F02D2084600F027BB70B500F070F910
:102F300000000089FFF7F6BF4FF00040A0F58000C9
:102F40007047000010B591EA030F48BF83F00043BB
:102F500000F1BA81841A71EB030C05D2121943EB0C
:102F60000C03001B61EB0C01DFF824E14FEA115464
:102F7000A4EB135C1EEA430F18BF9EEA445F73D0B4
:102F800023EA0E03DCF1200E21EA045143F48013FE
:102F900032D322FA0CFE10EB0E0023FA0CFE41EBAA
:102FA0000E01CCF1200E03FA0EFE10EB0E0051F1D3
:102FB0000001B1F5801FCCF1200E32D201EB04519B
:102FC00012FA0EF2BDE8104058BF7047401C38BFDF
:102FD0005FEA420218BF7047002814BF20F00100CA
:102FE00041F100014FEA410313F5001F38BF70475C
:102FF000A1F1C04100F05AB9012A43EB0302ACF140
:10300000200CDCF11F0E32BF4FF0000E23FA0CF340
:1030100010EB030041EB0451B4EB115FD0D0A1EBF6
:10302000045101F5801149085FEA300001EB0451B9
:103030000ED350F1000038BF12FA0EFE08D1BDE8E1
:103040001040C9E7401C38BF5FEA4202CAD1C3E75B
:10305000BDE810404FEA410313F5001F38BF704729
:10306000A1F1C04100F022B99EEA445F08D011EA04
:103070005E0FBDE8104004BF01F000410020704722
:10308000BDE8104070B500F0C3F800BF64FBBE3E61
:103090000000E0FFB0FA80F310FA03F10AD0C3F1A8
:1030A0001D0303F580634FEA41504FEA035202EBE0
:1030B000D12170474FF0000070470000DFF848C191
:1030C00070B51CEA111E1EBF1CEA13159EEA0C0FF8
:1030D00095EA0C0F00F06F8081EA030423EA4C1399
:1030E0004EEAD47E21EA4C1141F4801143F480135E
:1030F000AE44A1FB024CA0FB0365AEF17F7E361906
:1031000055EB0C05A1FB034C4CF10003A0FB021C8A
:1031100016EB0C06654153F10003094218BF46F057
:10312000010613F4007F0BD14FEA03314FEA05305B
:10313000340341EA155140EA16506FF003020AE0E9
:103140004FEAC3214FEAC520F40241EA555140EA53
:1031500056506FF0020202EB2E4201EB025585EA57
:10316000CE710AD05FEA440C18BF24F0004450F13D
:10317000000041F1000120EAD47040F2FE7C62457B
:1031800000D270BDA84214BF4FF080444FF04044BD
:10319000002E08BF0024BEF1806FA8BFA1F1C0417E
:1031A000BDE8704080F282804FF0000001F1C04124
:1031B00001F0004170479EEA0C0F0CEA131518BF8E
:1031C00095EA0C0F06D04FF0000081EA030E0EF0D6
:1031D000004170BD00F01CF88900013E00F007B806
:1031E00000F009B84FEA430C5FEA5C5C08D081EA62
:1031F000030100F05BB84FEA410C5FEA5C5CF6D17A
:103200004FF00000014970470000FF070000F87F01
:103210000EF1020E2EF0030E5EF8046B364205D45A
:10322000012A43EB030515F5001F12D8012841EBD5
:10323000010C1CF5001F0CD80ED14FEAD17C15F5FE
:10324000001F0CEB4C0C0CF1020C08BF4CEBD37CB8
:1032500004E04FF0080C01E04FEAD37C0CEB4C0586
:1032600026FA05F606F00706B6F1040C06D20EEBB8
:10327000860CBDE870404CF0010C6047DFE80CF0B4
:10328000090B02024FF000414FF00000A1F50021B0
:1032900070BD19461046012851EB010418BFD4F542
:1032A000001484BF002001F0004170BD0808A0F5A3
:1032B00000114FEA3101704710B591EA030F48BF82
:1032C00083F000433FF546AE841A71EB030C07D23E
:1032D00012198CF0004C43EB0C03001B61EB0C014A
:1032E000DFF8A4E14FEA1154A4EB135C1EEA430F8C
:1032F00018BF9EEA445F00F0B08023EA6E0352429A
:1033000021EA0451C3EB6E0338BF5B1EDCF1200ED3
:1033100025D322FA0CFE10EB0E0043FA0CFE41EB13
:103320000E01CCF1200E03FA0EFE10EB0E0051F14F
:103330000001CCF1200E29D412FA0EF201EB045157
:10334000BDE8104058BF7047401C1CBFB2F1004F91
:10335000704700280CBF491C20F00100704712EB99
:10336000020E43EB030218BF4FF0010E4EEA420279
:10337000ACF1200CDCF11E0E54D943FA0CFE10EB1C
:103380000E0051F1FF31CCF11E0ED5D50EF1010E1C
:1033900012FA0EFE404141EB010101EB445C5FEA91
:1033A0005C5C10D910EBDE7001EB045138BFBEF14C
:1033B000004FBDE8104018BF704700280CBF491CE3
:1033C00020F00100704730D24FEAD42C11F50011E3
:1033D00024F400641BD0B1FA81F20B3AA41AA41EA3
:1033E000D2F12003914030FA03F31943904001EBEE
:1033F000CC71002C01EB0451BDE81040A8BF704710
:1034000001F1C0414FF0000001F000417047B0FAF7
:1034100080F310FA03F100D110BDE41A173C4805FF
:10342000C90AE4E701EB045110BD491001EB045156
:10343000BDE810404FEA300002E04FF00001704755
:103440004A0008BF0042F8D0B2F5001F28BF7047FD
:1034500001F000414FF0000070479EEA445F07D042
:1034600011EA5E0FBDE8104004BF00210020704744
:10347000BDE8104070B5FFF7CBFE00BF40DFF63E61
:1034800083F00041104670470000E0FF43004FEA20
:10349000D30C4FEA3C0C43401FBF40070CF1605176
:1034A00013F0FE4F70471CF0006F03D100200CF0AA
:1034B000004170470CF0004343EA507010B540EAF9
:1034C000CC0000F00EF800BF000000924FEA0001AF
:1034D000FFF7ECBE4FF000414FF00000A1F50021D6
:1034E00070470EF1020E2EF0030E5EF8044B2442DC
:1034F00004D44FEA4102B2F17F4F11D84FEA4003A2
:10350000B3F17F4F0CD80ED14FEAD07CB2F17F4F90
:103510000CEB4C0C0CF1020C08BF4CEBD17C04E022
:103520004FF0080C01E04FEAD17C0CEB4C0324FA7D
:1035300003F404F00704B4F1040C06D20EEB840C7F
:10354000BDE810404CF0010C6047DFE80CF00708C4
:1035500002024FF00040A0F5800010BD0846420076
:1035600018BFD2F1807288BF00F0004010BD4FF04C
:103570004070E1EE100A7047FF2141EAD050C005CB
:103580007047FDF736B80000000000000000004F53
:10359000000000000700070000147F147F140024BF
:1035A0002A7F2A12002313086462003649552250EC
:1035B00000000503000000001C2241000000412221
:1035C0001C000014083E08140008083E080800000B
:1035D0005030000000080808080800006060000083
:1035E000002010080402003E5149453E0000427F81
:1035F0004000004261514946002141454B310018CD
:1036000014127F10002745454539003C4A4949308E
:103610000001710905030036494949360006494948
:10362000291E000036360000000056360000000853
:103630001422410000141414141400004122140830
:1036400000020151090600324979413E007E111104
:10365000117E007F4949493E003E41414122007FA1
:103660004141221C007F49494941007F0909090164
:10367000003E4149497A007F0808087F0000417FE9
:103680004100002040413F01007F08142241007F9B
:1036900040404040007F0204027F007F0408107F0A
:1036A000003E4141413E007F09090906003E41516B
:1036B000215E007F09192946004649494931000128
:1036C000017F0101003F4040403F001F2040201F7C
:1036D000003F4038403F006314081463000304783F
:1036E000040300615149454300007F41410000153A
:1036F000167C1615000041417F00000402010204FF
:1037000000404040404000000102040000205454AA
:103710005478007F484444380038444444200038FA
:103720004444487F00385454541800087E0901026C
:10373000000C5252523E007F080404780000447D81
:103740004000002040443D00007F1028440000005D
:10375000417F4000007E020C027C007E0402027C5D
:10376000003844444438007C14141408000814142D
:10377000187C007C080404080048545454200004B9
:103780003F444020003C4040207C001C2040201C46
:10379000003C4030403C004428102844000C50506D
:1037A000503C004464544C44000000000000000001
:1037B000000000000000000000001C7E7E1C0000D5
:1037C0000000000303000000000E0E00000E0E00BB
:1037D00000000000000000000088FEFE88FEFE8859
:1037E0000000030300030300000C1E3363C68400C3
:1037F0000001030E0E030100068FC96FB6988C00FE
:10380000000100030704070300ECFE125ECCC04079
:1038100000010302020103020000000E0E0000007E
:1038200000000000000000000000F0FC0E0200009C
:10383000000001070E0800000000020EFCF000006E
:103840000000080E070100000020A8F870F8A8206A
:103850000000000000000000002020F8F8202000F8
:103860000000000000000000000000000000000058
:103870000000000B0F070000002020202020200067
:103880000000000000000000000000000000000038
:103890000000000303030000000080E0781E060023
:1038A00000060701000000000000FCFEC21AFEFC3A
:1038B00000000103020203010008080CFEFE0000E4
:1038C0000000000003030000000C8EC2623E1C00DA
:1038D0000003030202020200008C8E2222FEDC00A2
:1038E000000103020203010000C0FEBE80F8F88060
:1038F0000000000000030300003E3E2222E2C2005E
:10390000000202020301000000F0F81E16F2E000BF
:103910000001030202030100000282E27A1E060097
:10392000000003030000000000DCFE3262FEDC0049
:103930000001030202030100003C7E42C2FE7C0043
:103940000000020303000000000000181818000027
:103950000000000303030000000000181818000016
:103960000000000B0F070000002070D88C0602003A
:103970000000000001030200005050505050500061
:1039800000000000000000000002068CD87020003B
:103990000002030100000000000C0E62721E0C0009
:1039A0000000000303000000FCFE0262F292FEFC35
:1039B000010302020202020200F8FC4646FCF80083
:1039C000000303000003030000FEFE2222FEDC00D1
:1039D000000303020203010000FCFE02028E8C00C1
:1039E000000103020203010000FEFE0206FCF800D3
:1039F000000303020301000000FEFE222222020057
:103A0000000303020202020000FEFE222222020044
:103A1000000303000000000000FCFE0242CECC00C8
:103A2000000103020203030000FEFE2020FEFE0050
:103A30000003030000030300000002FEFE0200007A
:103A400000000203030200000080800000FEFE0070
:103A5000000103020203010000FEFE20F8DE060062
:103A6000000303000003030000FEFE00000000004E
:103A7000000303020202020000FEFE087008FEFEC0
:103A8000000303000000030300FEFE183060FEFE8A
:103A9000000303000000030300FCFE0202FEFC0022
:103AA000000103020203010000FEFE22223E1C0070
:103AB000000303000000000000FCFE0202FEFC0008
:103AC00000010302060F090000FEFE2262FE9C00B8
:103AD0000003030000030300000C1E3262C68400D2
:103AE0000001030202030100000202FEFE020200C6
:103AF000000000030300000000FEFE0000FEFE00C8
:103B0000000103020203010000FEFE0000FEFE00B1
:103B10000000010303010000007EFE807080FE7E35
:103B200000000303000303000086CE3870CE860039
:103B30000003030000030300001E3EE0E03E1E0001
:103B400000000003030000000082C262321E0E006B
:103B500000030302020202000000FEFE0202000057
:103B600000000F0F0000000000061E78E08000003B
:103B7000000000000107060000000202FEFE000037
:103B8000000000000F0F000000080C06060C0800E3
:103B90000000000000000000000000000000000025
:103BA0000202020202020202000002060E080000E7
:103BB00000000000000000000080C84848F8F00045
:103BC000000103020203030000FEFE0808F8F000F3
:103BD000000303020203010000F0F80808181000B7
:103BE000000103020203010000F0F80808FEFE00D5
:103BF000000103020203030000F0F8484878700057
:103C000000010302020200000020FCFE222222002A
:103C1000000003030000000000F8FC0404FCFC00AA
:103C200000080909090F070000FEFE0808F8F00067
:103C30000003030000030300000808FBFB00000072
:103C4000000202030302020000000404FDFD000064
:103C5000000808080F07000000FEFE40E0B818004A
:103C60000003030000030300000202FEFE00000048
:103C7000000202030302020000F8F808F808F8F056
:103C8000000303000100030300F8F80808F8F0003F
:103C9000000303000003030000F0F80808F8F00038
:103CA000000103020203010000F8F80808F8F00020
:103CB000000F0F020203010000F0F80808F8F800F6
:103CC00000010302020F0F0000F8F820101818007E
:103CD00000030300000000000030784848C8880056
:103CE00000020202020301000008FEFE08080800AC
:103CF000000001030202020000F8F80000F8F800DA
:103D0000000103020203030000F8F80000F8F800C5
:103D1000000001030301000000F8F800F000F8F8CB
:103D200000000303000303000018B8E0E0B8180027
:103D3000000303000003030000FCFC0000FCFC0087
:103D40000808090D07030000000888C86838180033
:103D500000030302020202000040E0BC1E02000059
:103D6000000000070F080000000000FEFE00000039
:103D70000000000F0F0000000000021EBCE0400029
:103D80000000080F07000000603010306040603015
:103D900000000000000000004040E0E050404040D3
:103DA0000000000001000000000000000000000012
:103DB0000000000000000000000000F8000000000B
:103DC000000000333000000000100C06100C06004C
:103DD000000000000000000040C07840C0784000B3
:103DE000043F04043F040400007088FC0830000015
:103DF000001820FF211E0000F008F000E01800006D
:103E000000211C031E211E0000F008887000000025
:103E10001E2123241927211010160E000000000077
:103E20000000000000000000000000E01804020094
:103E3000000000071820400000020418E000000005
:103E40000040201807000000404080F08040400003
:103E50000202010F01020200000000F00000000059
:103E60000101011F0101010000000000000000002D
:103E700080B07000000000000000000000000000A2
:103E8000000101010101010100000000000000002B
:103E900000303000000000000000000080601804C6
:103EA000006018060100000000E010080810E000A3
:103EB000000F102020100F00001010F8000000006C
:103EC0000020203F202000000070080808887000B3
:103ED0000030282422213000003008888848300033
:103EE0000018202020110E000000C02010F8000053
:103EF00000070424243F240000F8088888080800EC
:103F00000019212020110E0000E010888818000000
:103F1000000F112020110E0000380808C8380800D2
:103F20000000003F00000000007088080888700052
:103F3000001C222121221C0000E010080810E000D3
:103F40000000312222110F00000000C0C00000005C
:103F50000000003030000000000000800000000081
:103F60000000806000000000000080402010080079
:103F70000001020408102000404040404040400042
:103F8000040404040404040000081020408000001D
:103F90000020100804020100007048080808F00022
:103FA0000000003036010000C030C828E810E000F2
:103FB0000718272423140B000000C038E00000007D
:103FC000203C23020227382008F8888888700000E7
:103FD000203F202020110E00C030080808083800BB
:103FE000071820202010080008F808080810E00032
:103FF000203F202020100F0008F88888E8081000D3
:10400000203F20202320180008F88888E8081000A6
:10401000203F200003000000C030080808380000DE
:1040200007182020221E020008F808000008F808DF
:10403000203F210101213F20000808F80808000066
:104040000020203F2020000000000808F808080099
:10405000C08080807F00000008F888C02818080011
:10406000203F20012638200008F80800000000004A
:10407000203F20202020300008F8F800F8F8080041
:10408000203F003F003F200008F830C00008F8083B
:10409000203F200007183F00E01008080810E0004B
:1040A0000F10202020100F0008F808080808F00062
:1040B000203F210101010000E01008080810E00085
:1040C0000F18242438504F0008F88888888870001A
:1040D000203F2000030C30200070880808083800BA
:1040E0000038202121221C00180808F808081800B0
:1040F0000000203F2000000008F808000008F80831
:10410000001F202020201F000878880000C83808E1
:10411000000007380E010000F80800F80008F80059
:10412000033C0700073C03000818688080681808F3
:1041300020302C03032C30200838C800C838080071
:104140000000203F2000000010080808C8380800C0
:104150002038262120201800000000FE0202020064
:104160000000007F40404000000C30C00000000014
:10417000000000010638C00000020202FE0000003C
:10418000004040407F0000000000040202020400E2
:10419000000000000000000000000000000000001F
:1041A0008080808080808080000202040000000007
:1041B00000000000000000000000808080800000FF
:1041C0000019242222223F2008F8008080000000ED
:1041D000003F112020110E000000008080800000B0
:1041E000000E112020201100000000808088F800BF
:1041F000000E112020103F200000808080800000F1
:10420000001F222222221300008080F08888881854
:104210000020203F2020000000008080808080005F
:10422000006B94949493600008F8008080800000F4
:10423000203F210000203F200080989800000000CF
:104240000020203F202000000000008098980000FF
:1042500000C08080807F000008F80000808080001F
:10426000203F24022D302000000808F80000000044
:104270000020203F202000008080808080808000FF
:10428000203F20003F20003F808000808080000091
:10429000203F210000203F2000008080808000001F
:1042A000001F202020201F00808000808000000050
:1042B00080FFA12020110E0000000080808080007F
:1042C000000E112020A0FF80808080008080800070
:1042D00020203F212000010000008080808080009D
:1042E0000033242424241900008080E08080000012
:1042F0000000001F2020000080800000008080005F
:10430000001F202020103F208080800000808080BF
:1043100000010E300806010080800080008080804F
:104320000F300C030C300F00008080008080800074
:104330000020312E0E31200080808000008080809F
:1043400080818E701806010000808080808080004F
:104350000021302C2221300000000000807C02026D
:1043600000000000003F404000000000FF0000008F
:1043700000000000FF0000000002027C800000003E
:104380000040403F0000000000060101020204045A
:104390000000000000000000040000080000000011
:1043A00000000002000100001000000002400000B8
:1043B000000000A00000000005400000000000C850
:1043C000000000000C4000000000409C00000000C5
:1043D000194000000020BCBE000000003440000076
:1043E000BFC91B8E00000004B5400000504BCFD069
:1043F0006607E2CF010000006C4100003E8251AA36
:10440000DFEEA73401000000D9420000DCB5A0E2D5
:104410003A301F97FFFFFFFFB4450000FD25A0C8FD
:10442000E9A3C14FFFFFFFFFFF3F00000000008036
:1044300000000000FF3F00000000008000000000BE
:104440007C440008000000201C000000C40100089B
:10445000984400081C0000204C0B0000E0010008FC
:104460001C00000043000000F8FFFFFF0C000000EC
:104470000E0000000F0000002E000000AABBCCDDE3
:10448000EE000000000005060A0B0C000000000012
:08449000000000000000000024
:040000050800018965
:00000001FF
